{
  "abi": [
    {
      "inputs": [],
      "stateMutability": "nonpayable",
      "type": "constructor"
    },
    {
      "anonymous": false,
      "inputs": [
        {
          "indexed": true,
          "internalType": "address",
          "name": "by",
          "type": "address"
        },
        {
          "indexed": true,
          "internalType": "uint256",
          "name": "tierID",
          "type": "uint256"
        },
        {
          "components": [
            {
              "internalType": "string",
              "name": "name",
              "type": "string"
            },
            {
              "internalType": "string",
              "name": "ipfsMetadataLink",
              "type": "string"
            },
            {
              "internalType": "uint256",
              "name": "usdcPrice",
              "type": "uint256"
            },
            {
              "internalType": "uint256",
              "name": "freeUsersCount",
              "type": "uint256"
            },
            {
              "internalType": "uint256",
              "name": "usdcPerAdditionalUser",
              "type": "uint256"
            },
            {
              "internalType": "uint256",
              "name": "platformFee",
              "type": "uint256"
            },
            {
              "internalType": "bool",
              "name": "isActive",
              "type": "bool"
            }
          ],
          "indexed": false,
          "internalType": "struct Gratie.BusinessNftTier",
          "name": "tier",
          "type": "tuple"
        },
        {
          "indexed": false,
          "internalType": "uint256",
          "name": "timestamp",
          "type": "uint256"
        }
      ],
      "name": "BusinessNftTierAdded",
      "type": "event"
    },
    {
      "anonymous": false,
      "inputs": [
        {
          "indexed": true,
          "internalType": "address",
          "name": "by",
          "type": "address"
        },
        {
          "indexed": false,
          "internalType": "uint256[]",
          "name": "ids",
          "type": "uint256[]"
        },
        {
          "indexed": false,
          "internalType": "uint256",
          "name": "timestamp",
          "type": "uint256"
        }
      ],
      "name": "BusinessNftTiersActivated",
      "type": "event"
    },
    {
      "anonymous": false,
      "inputs": [
        {
          "indexed": true,
          "internalType": "address",
          "name": "by",
          "type": "address"
        },
        {
          "indexed": false,
          "internalType": "uint256[]",
          "name": "ids",
          "type": "uint256[]"
        },
        {
          "indexed": false,
          "internalType": "uint256",
          "name": "timestamp",
          "type": "uint256"
        }
      ],
      "name": "BusinessNftTiersDeactivated",
      "type": "event"
    },
    {
      "anonymous": false,
      "inputs": [
        {
          "indexed": true,
          "internalType": "address",
          "name": "by",
          "type": "address"
        },
        {
          "indexed": true,
          "internalType": "uint256",
          "name": "businessID",
          "type": "uint256"
        },
        {
          "indexed": true,
          "internalType": "uint256",
          "name": "businessNftTier",
          "type": "uint256"
        },
        {
          "indexed": false,
          "internalType": "string",
          "name": "name",
          "type": "string"
        },
        {
          "indexed": false,
          "internalType": "string",
          "name": "email",
          "type": "string"
        },
        {
          "indexed": false,
          "internalType": "uint256",
          "name": "divisionsCreated",
          "type": "uint256"
        },
        {
          "components": [
            {
              "internalType": "string",
              "name": "name",
              "type": "string"
            },
            {
              "internalType": "string",
              "name": "ipfsMetadataLink",
              "type": "string"
            },
            {
              "internalType": "uint256",
              "name": "serviceProviderNftID",
              "type": "uint256"
            },
            {
              "internalType": "uint256",
              "name": "serviceProvidersInDivision",
              "type": "uint256"
            }
          ],
          "indexed": false,
          "internalType": "struct Gratie.ServiceProviderDivision[]",
          "name": "divisions",
          "type": "tuple[]"
        },
        {
          "indexed": false,
          "internalType": "string",
          "name": "paymentMethod",
          "type": "string"
        },
        {
          "indexed": false,
          "internalType": "uint256",
          "name": "paymentAmount",
          "type": "uint256"
        },
        {
          "indexed": false,
          "internalType": "uint256",
          "name": "timestamp",
          "type": "uint256"
        }
      ],
      "name": "BusinessRegistered",
      "type": "event"
    },
    {
      "anonymous": false,
      "inputs": [
        {
          "indexed": true,
          "internalType": "address",
          "name": "by",
          "type": "address"
        },
        {
          "indexed": true,
          "internalType": "uint256",
          "name": "businessID",
          "type": "uint256"
        },
        {
          "indexed": true,
          "internalType": "uint256",
          "name": "businessNftTier",
          "type": "uint256"
        },
        {
          "indexed": false,
          "internalType": "address",
          "name": "to",
          "type": "address"
        },
        {
          "indexed": false,
          "internalType": "string",
          "name": "name",
          "type": "string"
        },
        {
          "indexed": false,
          "internalType": "string",
          "name": "email",
          "type": "string"
        },
        {
          "indexed": false,
          "internalType": "uint256",
          "name": "divisionsCreated",
          "type": "uint256"
        },
        {
          "components": [
            {
              "internalType": "string",
              "name": "name",
              "type": "string"
            },
            {
              "internalType": "string",
              "name": "ipfsMetadataLink",
              "type": "string"
            },
            {
              "internalType": "uint256",
              "name": "serviceProviderNftID",
              "type": "uint256"
            },
            {
              "internalType": "uint256",
              "name": "serviceProvidersInDivision",
              "type": "uint256"
            }
          ],
          "indexed": false,
          "internalType": "struct Gratie.ServiceProviderDivision[]",
          "name": "divisions",
          "type": "tuple[]"
        },
        {
          "indexed": false,
          "internalType": "uint256",
          "name": "timestamp",
          "type": "uint256"
        }
      ],
      "name": "BusinessRegisteredByOwner",
      "type": "event"
    },
    {
      "anonymous": false,
      "inputs": [],
      "name": "EIP712DomainChanged",
      "type": "event"
    },
    {
      "anonymous": false,
      "inputs": [
        {
          "indexed": false,
          "internalType": "uint8",
          "name": "version",
          "type": "uint8"
        }
      ],
      "name": "Initialized",
      "type": "event"
    },
    {
      "anonymous": false,
      "inputs": [
        {
          "indexed": true,
          "internalType": "address",
          "name": "previousOwner",
          "type": "address"
        },
        {
          "indexed": true,
          "internalType": "address",
          "name": "newOwner",
          "type": "address"
        }
      ],
      "name": "OwnershipTransferred",
      "type": "event"
    },
    {
      "anonymous": false,
      "inputs": [
        {
          "indexed": true,
          "internalType": "address",
          "name": "by",
          "type": "address"
        },
        {
          "indexed": true,
          "internalType": "uint256",
          "name": "businessId",
          "type": "uint256"
        },
        {
          "indexed": true,
          "internalType": "uint256",
          "name": "distributionNo",
          "type": "uint256"
        },
        {
          "indexed": false,
          "internalType": "uint256",
          "name": "totalServiceProviders",
          "type": "uint256"
        },
        {
          "indexed": false,
          "internalType": "uint256",
          "name": "percentageToDistribute",
          "type": "uint256"
        },
        {
          "indexed": false,
          "internalType": "uint256",
          "name": "availableRewardTokens",
          "type": "uint256"
        },
        {
          "indexed": false,
          "internalType": "uint256",
          "name": "tokensPerProvider",
          "type": "uint256"
        },
        {
          "indexed": false,
          "internalType": "uint256",
          "name": "startTimestamp",
          "type": "uint256"
        }
      ],
      "name": "RewardDistributionCreated",
      "type": "event"
    },
    {
      "anonymous": false,
      "inputs": [
        {
          "indexed": true,
          "internalType": "address",
          "name": "by",
          "type": "address"
        },
        {
          "indexed": true,
          "internalType": "uint256",
          "name": "businessId",
          "type": "uint256"
        },
        {
          "indexed": true,
          "internalType": "uint256",
          "name": "distributionNo",
          "type": "uint256"
        },
        {
          "indexed": false,
          "internalType": "address",
          "name": "rewardToken",
          "type": "address"
        },
        {
          "indexed": false,
          "internalType": "uint256",
          "name": "amount",
          "type": "uint256"
        },
        {
          "indexed": false,
          "internalType": "uint256",
          "name": "timestamp",
          "type": "uint256"
        }
      ],
      "name": "RewardTokensClaimed",
      "type": "event"
    },
    {
      "anonymous": false,
      "inputs": [
        {
          "indexed": true,
          "internalType": "address",
          "name": "by",
          "type": "address"
        },
        {
          "indexed": true,
          "internalType": "uint256",
          "name": "businessId",
          "type": "uint256"
        },
        {
          "indexed": true,
          "internalType": "uint256",
          "name": "mintNonce",
          "type": "uint256"
        },
        {
          "indexed": false,
          "internalType": "address",
          "name": "rewardToken",
          "type": "address"
        },
        {
          "indexed": false,
          "internalType": "uint256",
          "name": "amount",
          "type": "uint256"
        },
        {
          "indexed": false,
          "internalType": "uint256",
          "name": "lockInPercentage",
          "type": "uint256"
        },
        {
          "indexed": false,
          "internalType": "uint256",
          "name": "totalSupply",
          "type": "uint256"
        },
        {
          "indexed": false,
          "internalType": "string",
          "name": "tokenName",
          "type": "string"
        },
        {
          "indexed": false,
          "internalType": "string",
          "name": "tokenSymbol",
          "type": "string"
        },
        {
          "indexed": false,
          "internalType": "string",
          "name": "tokenIconURL",
          "type": "string"
        },
        {
          "indexed": false,
          "internalType": "uint256",
          "name": "timestamp",
          "type": "uint256"
        }
      ],
      "name": "RewardTokensGenerated",
      "type": "event"
    },
    {
      "anonymous": false,
      "inputs": [
        {
          "indexed": true,
          "internalType": "bytes32",
          "name": "role",
          "type": "bytes32"
        },
        {
          "indexed": true,
          "internalType": "bytes32",
          "name": "previousAdminRole",
          "type": "bytes32"
        },
        {
          "indexed": true,
          "internalType": "bytes32",
          "name": "newAdminRole",
          "type": "bytes32"
        }
      ],
      "name": "RoleAdminChanged",
      "type": "event"
    },
    {
      "anonymous": false,
      "inputs": [
        {
          "indexed": true,
          "internalType": "bytes32",
          "name": "role",
          "type": "bytes32"
        },
        {
          "indexed": true,
          "internalType": "address",
          "name": "account",
          "type": "address"
        },
        {
          "indexed": true,
          "internalType": "address",
          "name": "sender",
          "type": "address"
        }
      ],
      "name": "RoleGranted",
      "type": "event"
    },
    {
      "anonymous": false,
      "inputs": [
        {
          "indexed": true,
          "internalType": "bytes32",
          "name": "role",
          "type": "bytes32"
        },
        {
          "indexed": true,
          "internalType": "address",
          "name": "account",
          "type": "address"
        },
        {
          "indexed": true,
          "internalType": "address",
          "name": "sender",
          "type": "address"
        }
      ],
      "name": "RoleRevoked",
      "type": "event"
    },
    {
      "anonymous": false,
      "inputs": [
        {
          "indexed": true,
          "internalType": "address",
          "name": "by",
          "type": "address"
        },
        {
          "indexed": true,
          "internalType": "uint256",
          "name": "businessID",
          "type": "uint256"
        },
        {
          "indexed": true,
          "internalType": "uint256",
          "name": "serviceProviderNftID",
          "type": "uint256"
        },
        {
          "indexed": false,
          "internalType": "uint256",
          "name": "divisionNumber",
          "type": "uint256"
        },
        {
          "indexed": false,
          "internalType": "string",
          "name": "name",
          "type": "string"
        },
        {
          "indexed": false,
          "internalType": "string",
          "name": "ipfsMetadataLink",
          "type": "string"
        },
        {
          "indexed": false,
          "internalType": "uint256",
          "name": "timestamp",
          "type": "uint256"
        }
      ],
      "name": "ServiceProviderDivisionAdded",
      "type": "event"
    },
    {
      "anonymous": false,
      "inputs": [
        {
          "indexed": true,
          "internalType": "address",
          "name": "by",
          "type": "address"
        },
        {
          "indexed": true,
          "internalType": "uint256",
          "name": "businessId",
          "type": "uint256"
        },
        {
          "indexed": true,
          "internalType": "uint256",
          "name": "divisionId",
          "type": "uint256"
        },
        {
          "indexed": false,
          "internalType": "address[]",
          "name": "addresses",
          "type": "address[]"
        },
        {
          "indexed": false,
          "internalType": "uint256",
          "name": "usdcPlatformFeePaid",
          "type": "uint256"
        },
        {
          "indexed": false,
          "internalType": "uint256",
          "name": "timestamp",
          "type": "uint256"
        }
      ],
      "name": "ServiceProvidersRegistered",
      "type": "event"
    },
    {
      "anonymous": false,
      "inputs": [
        {
          "indexed": true,
          "internalType": "address",
          "name": "by",
          "type": "address"
        },
        {
          "indexed": true,
          "internalType": "uint256",
          "name": "businessId",
          "type": "uint256"
        },
        {
          "indexed": true,
          "internalType": "uint256",
          "name": "divisionId",
          "type": "uint256"
        },
        {
          "indexed": false,
          "internalType": "address[]",
          "name": "addresses",
          "type": "address[]"
        },
        {
          "indexed": false,
          "internalType": "uint256",
          "name": "timestamp",
          "type": "uint256"
        }
      ],
      "name": "ServiceProvidersRemoved",
      "type": "event"
    },
    {
      "inputs": [],
      "name": "DEFAULT_ADMIN_ROLE",
      "outputs": [
        {
          "internalType": "bytes32",
          "name": "",
          "type": "bytes32"
        }
      ],
      "stateMutability": "view",
      "type": "function"
    },
    {
      "inputs": [],
      "name": "GRATIE_PLATFORM_ADMIN",
      "outputs": [
        {
          "internalType": "bytes32",
          "name": "",
          "type": "bytes32"
        }
      ],
      "stateMutability": "view",
      "type": "function"
    },
    {
      "inputs": [],
      "name": "_PAYMENT_TYPEHASH",
      "outputs": [
        {
          "internalType": "bytes32",
          "name": "",
          "type": "bytes32"
        }
      ],
      "stateMutability": "view",
      "type": "function"
    },
    {
      "inputs": [
        {
          "components": [
            {
              "internalType": "string",
              "name": "name",
              "type": "string"
            },
            {
              "internalType": "string",
              "name": "ipfsMetadataLink",
              "type": "string"
            },
            {
              "internalType": "uint256",
              "name": "usdcPrice",
              "type": "uint256"
            },
            {
              "internalType": "uint256",
              "name": "freeUsersCount",
              "type": "uint256"
            },
            {
              "internalType": "uint256",
              "name": "usdcPerAdditionalUser",
              "type": "uint256"
            },
            {
              "internalType": "uint256",
              "name": "platformFee",
              "type": "uint256"
            },
            {
              "internalType": "bool",
              "name": "isActive",
              "type": "bool"
            }
          ],
          "internalType": "struct Gratie.BusinessNftTier[]",
          "name": "_tiers",
          "type": "tuple[]"
        }
      ],
      "name": "addBusinessNftTiers",
      "outputs": [],
      "stateMutability": "nonpayable",
      "type": "function"
    },
    {
      "inputs": [
        {
          "internalType": "uint256",
          "name": "_businessID",
          "type": "uint256"
        },
        {
          "internalType": "string[]",
          "name": "_divisionNames",
          "type": "string[]"
        },
        {
          "internalType": "string[]",
          "name": "_divisionMetadataURIs",
          "type": "string[]"
        }
      ],
      "name": "addDivisionsInBusiness",
      "outputs": [],
      "stateMutability": "nonpayable",
      "type": "function"
    },
    {
      "inputs": [],
      "name": "businessNFT",
      "outputs": [
        {
          "internalType": "contract BusinessNFT",
          "name": "",
          "type": "address"
        }
      ],
      "stateMutability": "view",
      "type": "function"
    },
    {
      "inputs": [],
      "name": "businessNFTs",
      "outputs": [
        {
          "internalType": "contract BusinessNFT",
          "name": "",
          "type": "address"
        }
      ],
      "stateMutability": "view",
      "type": "function"
    },
    {
      "inputs": [
        {
          "internalType": "uint256",
          "name": "",
          "type": "uint256"
        }
      ],
      "name": "businessNftTiers",
      "outputs": [
        {
          "internalType": "string",
          "name": "name",
          "type": "string"
        },
        {
          "internalType": "string",
          "name": "ipfsMetadataLink",
          "type": "string"
        },
        {
          "internalType": "uint256",
          "name": "usdcPrice",
          "type": "uint256"
        },
        {
          "internalType": "uint256",
          "name": "freeUsersCount",
          "type": "uint256"
        },
        {
          "internalType": "uint256",
          "name": "usdcPerAdditionalUser",
          "type": "uint256"
        },
        {
          "internalType": "uint256",
          "name": "platformFee",
          "type": "uint256"
        },
        {
          "internalType": "bool",
          "name": "isActive",
          "type": "bool"
        }
      ],
      "stateMutability": "view",
      "type": "function"
    },
    {
      "inputs": [
        {
          "internalType": "uint256",
          "name": "",
          "type": "uint256"
        }
      ],
      "name": "businesses",
      "outputs": [
        {
          "internalType": "string",
          "name": "name",
          "type": "string"
        },
        {
          "internalType": "string",
          "name": "email",
          "type": "string"
        },
        {
          "internalType": "address",
          "name": "rewardToken",
          "type": "address"
        },
        {
          "internalType": "uint256",
          "name": "businessNftTier",
          "type": "uint256"
        },
        {
          "internalType": "uint256",
          "name": "divisionsInBusiness",
          "type": "uint256"
        },
        {
          "internalType": "uint256",
          "name": "totalServiceProviders",
          "type": "uint256"
        }
      ],
      "stateMutability": "view",
      "type": "function"
    },
    {
      "inputs": [
        {
          "internalType": "uint256",
          "name": "_businessID",
          "type": "uint256"
        },
        {
          "internalType": "uint256",
          "name": "_distributionNo",
          "type": "uint256"
        }
      ],
      "name": "claimRewardTokens",
      "outputs": [],
      "stateMutability": "nonpayable",
      "type": "function"
    },
    {
      "inputs": [
        {
          "internalType": "uint256",
          "name": "",
          "type": "uint256"
        }
      ],
      "name": "divisionNftIdToBusinessNftId",
      "outputs": [
        {
          "internalType": "uint256",
          "name": "",
          "type": "uint256"
        }
      ],
      "stateMutability": "view",
      "type": "function"
    },
    {
      "inputs": [],
      "name": "domainName",
      "outputs": [
        {
          "internalType": "string",
          "name": "",
          "type": "string"
        }
      ],
      "stateMutability": "view",
      "type": "function"
    },
    {
      "inputs": [],
      "name": "domainVersion",
      "outputs": [
        {
          "internalType": "string",
          "name": "",
          "type": "string"
        }
      ],
      "stateMutability": "view",
      "type": "function"
    },
    {
      "inputs": [],
      "name": "eip712Domain",
      "outputs": [
        {
          "internalType": "bytes1",
          "name": "fields",
          "type": "bytes1"
        },
        {
          "internalType": "string",
          "name": "name",
          "type": "string"
        },
        {
          "internalType": "string",
          "name": "version",
          "type": "string"
        },
        {
          "internalType": "uint256",
          "name": "chainId",
          "type": "uint256"
        },
        {
          "internalType": "address",
          "name": "verifyingContract",
          "type": "address"
        },
        {
          "internalType": "bytes32",
          "name": "salt",
          "type": "bytes32"
        },
        {
          "internalType": "uint256[]",
          "name": "extensions",
          "type": "uint256[]"
        }
      ],
      "stateMutability": "view",
      "type": "function"
    },
    {
      "inputs": [
        {
          "components": [
            {
              "internalType": "uint256",
              "name": "businessId",
              "type": "uint256"
            },
            {
              "internalType": "uint256",
              "name": "amount",
              "type": "uint256"
            },
            {
              "internalType": "uint256",
              "name": "lockInPercentage",
              "type": "uint256"
            },
            {
              "internalType": "uint256",
              "name": "mintNonce",
              "type": "uint256"
            }
          ],
          "internalType": "struct Gratie.RewardTokenMint",
          "name": "_data",
          "type": "tuple"
        },
        {
          "internalType": "string",
          "name": "_tokenName",
          "type": "string"
        },
        {
          "internalType": "string",
          "name": "_tokenSymbol",
          "type": "string"
        },
        {
          "internalType": "string",
          "name": "_tokenIconURL",
          "type": "string"
        }
      ],
      "name": "generateRewardTokens",
      "outputs": [],
      "stateMutability": "nonpayable",
      "type": "function"
    },
    {
      "inputs": [
        {
          "internalType": "bytes32",
          "name": "role",
          "type": "bytes32"
        }
      ],
      "name": "getRoleAdmin",
      "outputs": [
        {
          "internalType": "bytes32",
          "name": "",
          "type": "bytes32"
        }
      ],
      "stateMutability": "view",
      "type": "function"
    },
    {
      "inputs": [
        {
          "internalType": "bytes32",
          "name": "role",
          "type": "bytes32"
        },
        {
          "internalType": "address",
          "name": "account",
          "type": "address"
        }
      ],
      "name": "grantRole",
      "outputs": [],
      "stateMutability": "nonpayable",
      "type": "function"
    },
    {
      "inputs": [
        {
          "internalType": "address",
          "name": "",
          "type": "address"
        },
        {
          "internalType": "uint256",
          "name": "",
          "type": "uint256"
        },
        {
          "internalType": "uint256",
          "name": "",
          "type": "uint256"
        }
      ],
      "name": "hasClaimedRewards",
      "outputs": [
        {
          "internalType": "bool",
          "name": "",
          "type": "bool"
        }
      ],
      "stateMutability": "view",
      "type": "function"
    },
    {
      "inputs": [
        {
          "internalType": "bytes32",
          "name": "role",
          "type": "bytes32"
        },
        {
          "internalType": "address",
          "name": "account",
          "type": "address"
        }
      ],
      "name": "hasRole",
      "outputs": [
        {
          "internalType": "bool",
          "name": "",
          "type": "bool"
        }
      ],
      "stateMutability": "view",
      "type": "function"
    },
    {
      "inputs": [
        {
          "components": [
            {
              "internalType": "string",
              "name": "domainName",
              "type": "string"
            },
            {
              "internalType": "string",
              "name": "domainVersion",
              "type": "string"
            },
            {
              "internalType": "address",
              "name": "platformFeeReceiver",
              "type": "address"
            },
            {
              "internalType": "address",
              "name": "businessNFTs",
              "type": "address"
            },
            {
              "internalType": "address",
              "name": "serviceProviderNFTs",
              "type": "address"
            },
            {
              "internalType": "address",
              "name": "rewardTokenImplementation",
              "type": "address"
            },
            {
              "internalType": "address",
              "name": "defaultAdminAddress",
              "type": "address"
            },
            {
              "internalType": "address",
              "name": "usdcContractAddress",
              "type": "address"
            },
            {
              "internalType": "address[]",
              "name": "paymentMethods",
              "type": "address[]"
            },
            {
              "internalType": "address[]",
              "name": "gratiePlatformAdmins",
              "type": "address[]"
            },
            {
              "components": [
                {
                  "internalType": "string",
                  "name": "name",
                  "type": "string"
                },
                {
                  "internalType": "string",
                  "name": "ipfsMetadataLink",
                  "type": "string"
                },
                {
                  "internalType": "uint256",
                  "name": "usdcPrice",
                  "type": "uint256"
                },
                {
                  "internalType": "uint256",
                  "name": "freeUsersCount",
                  "type": "uint256"
                },
                {
                  "internalType": "uint256",
                  "name": "usdcPerAdditionalUser",
                  "type": "uint256"
                },
                {
                  "internalType": "uint256",
                  "name": "platformFee",
                  "type": "uint256"
                },
                {
                  "internalType": "bool",
                  "name": "isActive",
                  "type": "bool"
                }
              ],
              "internalType": "struct Gratie.BusinessNftTier[]",
              "name": "businessNftTiers",
              "type": "tuple[]"
            }
          ],
          "internalType": "struct Gratie.InitData",
          "name": "_initData",
          "type": "tuple"
        }
      ],
      "name": "initialize",
      "outputs": [],
      "stateMutability": "nonpayable",
      "type": "function"
    },
    {
      "inputs": [
        {
          "internalType": "address",
          "name": "",
          "type": "address"
        }
      ],
      "name": "isValidPaymentMethod",
      "outputs": [
        {
          "internalType": "bool",
          "name": "",
          "type": "bool"
        }
      ],
      "stateMutability": "view",
      "type": "function"
    },
    {
      "inputs": [],
      "name": "owner",
      "outputs": [
        {
          "internalType": "address",
          "name": "",
          "type": "address"
        }
      ],
      "stateMutability": "view",
      "type": "function"
    },
    {
      "inputs": [],
      "name": "platformFeeReceiver",
      "outputs": [
        {
          "internalType": "address",
          "name": "",
          "type": "address"
        }
      ],
      "stateMutability": "view",
      "type": "function"
    },
    {
      "inputs": [
        {
          "components": [
            {
              "internalType": "string",
              "name": "name",
              "type": "string"
            },
            {
              "internalType": "string",
              "name": "email",
              "type": "string"
            },
            {
              "internalType": "string",
              "name": "nftMetadataURI",
              "type": "string"
            },
            {
              "internalType": "uint256",
              "name": "businessNftTier",
              "type": "uint256"
            }
          ],
          "internalType": "struct Gratie.BusinessData",
          "name": "_businessData",
          "type": "tuple"
        },
        {
          "internalType": "string[]",
          "name": "_divisionNames",
          "type": "string[]"
        },
        {
          "internalType": "string[]",
          "name": "_divisionMetadataURIs",
          "type": "string[]"
        },
        {
          "components": [
            {
              "internalType": "address",
              "name": "method",
              "type": "address"
            },
            {
              "internalType": "uint256",
              "name": "amount",
              "type": "uint256"
            }
          ],
          "internalType": "struct Gratie.Payment",
          "name": "_payment",
          "type": "tuple"
        }
      ],
      "name": "registerBusiness",
      "outputs": [],
      "stateMutability": "payable",
      "type": "function"
    },
    {
      "inputs": [
        {
          "internalType": "address",
          "name": "_to",
          "type": "address"
        },
        {
          "internalType": "string",
          "name": "_name",
          "type": "string"
        },
        {
          "internalType": "string",
          "name": "_email",
          "type": "string"
        },
        {
          "internalType": "string",
          "name": "_nftMetadataURI",
          "type": "string"
        },
        {
          "internalType": "uint256",
          "name": "_businessNftTier",
          "type": "uint256"
        },
        {
          "internalType": "string[]",
          "name": "_divisionNames",
          "type": "string[]"
        },
        {
          "internalType": "string[]",
          "name": "_divisionMetadataURIs",
          "type": "string[]"
        }
      ],
      "name": "registerBusinessByOwner",
      "outputs": [],
      "stateMutability": "nonpayable",
      "type": "function"
    },
    {
      "inputs": [
        {
          "internalType": "uint256",
          "name": "_businessID",
          "type": "uint256"
        },
        {
          "internalType": "uint256",
          "name": "_divisionID",
          "type": "uint256"
        },
        {
          "internalType": "address[]",
          "name": "_serviceProviders",
          "type": "address[]"
        }
      ],
      "name": "registerServiceProviders",
      "outputs": [],
      "stateMutability": "nonpayable",
      "type": "function"
    },
    {
      "inputs": [
        {
          "internalType": "uint256",
          "name": "_businessID",
          "type": "uint256"
        },
        {
          "internalType": "uint256",
          "name": "_divisionID",
          "type": "uint256"
        },
        {
          "internalType": "address[]",
          "name": "_serviceProviders",
          "type": "address[]"
        }
      ],
      "name": "removeServiceProviders",
      "outputs": [],
      "stateMutability": "nonpayable",
      "type": "function"
    },
    {
      "inputs": [],
      "name": "renounceOwnership",
      "outputs": [],
      "stateMutability": "nonpayable",
      "type": "function"
    },
    {
      "inputs": [
        {
          "internalType": "bytes32",
          "name": "role",
          "type": "bytes32"
        },
        {
          "internalType": "address",
          "name": "account",
          "type": "address"
        }
      ],
      "name": "renounceRole",
      "outputs": [],
      "stateMutability": "nonpayable",
      "type": "function"
    },
    {
      "inputs": [
        {
          "internalType": "bytes32",
          "name": "role",
          "type": "bytes32"
        },
        {
          "internalType": "address",
          "name": "account",
          "type": "address"
        }
      ],
      "name": "revokeRole",
      "outputs": [],
      "stateMutability": "nonpayable",
      "type": "function"
    },
    {
      "inputs": [
        {
          "internalType": "uint256",
          "name": "",
          "type": "uint256"
        },
        {
          "internalType": "uint256",
          "name": "",
          "type": "uint256"
        }
      ],
      "name": "rewardDistributions",
      "outputs": [
        {
          "internalType": "uint256",
          "name": "totalServiceProviders",
          "type": "uint256"
        },
        {
          "internalType": "uint256",
          "name": "tokensPerProvider",
          "type": "uint256"
        },
        {
          "internalType": "uint256",
          "name": "startTimestamp",
          "type": "uint256"
        },
        {
          "internalType": "uint256",
          "name": "percentageToDistribute",
          "type": "uint256"
        },
        {
          "internalType": "uint256",
          "name": "availableRewardTokens",
          "type": "uint256"
        },
        {
          "internalType": "uint256",
          "name": "claimsDone",
          "type": "uint256"
        }
      ],
      "stateMutability": "view",
      "type": "function"
    },
    {
      "inputs": [
        {
          "internalType": "uint256",
          "name": "",
          "type": "uint256"
        }
      ],
      "name": "rewardDistributionsCreated",
      "outputs": [
        {
          "internalType": "uint256",
          "name": "",
          "type": "uint256"
        }
      ],
      "stateMutability": "view",
      "type": "function"
    },
    {
      "inputs": [],
      "name": "rewardTokenImplementation",
      "outputs": [
        {
          "internalType": "address",
          "name": "",
          "type": "address"
        }
      ],
      "stateMutability": "view",
      "type": "function"
    },
    {
      "inputs": [
        {
          "internalType": "uint256",
          "name": "",
          "type": "uint256"
        }
      ],
      "name": "rewardTokenMints",
      "outputs": [
        {
          "internalType": "uint256",
          "name": "",
          "type": "uint256"
        }
      ],
      "stateMutability": "view",
      "type": "function"
    },
    {
      "inputs": [
        {
          "internalType": "uint256",
          "name": "",
          "type": "uint256"
        }
      ],
      "name": "rewardTokensAvailable",
      "outputs": [
        {
          "internalType": "uint256",
          "name": "",
          "type": "uint256"
        }
      ],
      "stateMutability": "view",
      "type": "function"
    },
    {
      "inputs": [
        {
          "internalType": "uint256",
          "name": "",
          "type": "uint256"
        }
      ],
      "name": "rewardTokensDistributed",
      "outputs": [
        {
          "internalType": "uint256",
          "name": "",
          "type": "uint256"
        }
      ],
      "stateMutability": "view",
      "type": "function"
    },
    {
      "inputs": [],
      "name": "serviceProviderNFT",
      "outputs": [
        {
          "internalType": "address",
          "name": "",
          "type": "address"
        }
      ],
      "stateMutability": "view",
      "type": "function"
    },
    {
      "inputs": [],
      "name": "serviceProviderNFTs",
      "outputs": [
        {
          "internalType": "contract ServiceProviderNFT",
          "name": "",
          "type": "address"
        }
      ],
      "stateMutability": "view",
      "type": "function"
    },
    {
      "inputs": [
        {
          "internalType": "uint256",
          "name": "",
          "type": "uint256"
        },
        {
          "internalType": "address",
          "name": "",
          "type": "address"
        }
      ],
      "name": "serviceProviderRegisteredAt",
      "outputs": [
        {
          "internalType": "uint256",
          "name": "",
          "type": "uint256"
        }
      ],
      "stateMutability": "view",
      "type": "function"
    },
    {
      "inputs": [
        {
          "internalType": "uint256",
          "name": "_businessID",
          "type": "uint256"
        },
        {
          "internalType": "uint256",
          "name": "_percentageToDistribute",
          "type": "uint256"
        }
      ],
      "name": "startRewardDistribution",
      "outputs": [],
      "stateMutability": "nonpayable",
      "type": "function"
    },
    {
      "inputs": [
        {
          "internalType": "bytes4",
          "name": "interfaceId",
          "type": "bytes4"
        }
      ],
      "name": "supportsInterface",
      "outputs": [
        {
          "internalType": "bool",
          "name": "",
          "type": "bool"
        }
      ],
      "stateMutability": "view",
      "type": "function"
    },
    {
      "inputs": [],
      "name": "totalBusinessNftTiers",
      "outputs": [
        {
          "internalType": "uint256",
          "name": "",
          "type": "uint256"
        }
      ],
      "stateMutability": "view",
      "type": "function"
    },
    {
      "inputs": [],
      "name": "totalBusinesses",
      "outputs": [
        {
          "internalType": "uint256",
          "name": "",
          "type": "uint256"
        }
      ],
      "stateMutability": "view",
      "type": "function"
    },
    {
      "inputs": [],
      "name": "totalDivisions",
      "outputs": [
        {
          "internalType": "uint256",
          "name": "",
          "type": "uint256"
        }
      ],
      "stateMutability": "view",
      "type": "function"
    },
    {
      "inputs": [
        {
          "internalType": "address",
          "name": "newOwner",
          "type": "address"
        }
      ],
      "name": "transferOwnership",
      "outputs": [],
      "stateMutability": "nonpayable",
      "type": "function"
    },
    {
      "inputs": [],
      "name": "usdc",
      "outputs": [
        {
          "internalType": "contract IERC20Upgradeable",
          "name": "",
          "type": "address"
        }
      ],
      "stateMutability": "view",
      "type": "function"
    }
  ],
  "bytecode": {
    "object": "0x60806040523480156200001157600080fd5b506200001c62000022565b620000e3565b600054610100900460ff16156200008f5760405162461bcd60e51b815260206004820152602760248201527f496e697469616c697a61626c653a20636f6e747261637420697320696e697469604482015266616c697a696e6760c81b606482015260840160405180910390fd5b60005460ff90811614620000e1576000805460ff191660ff9081179091556040519081527f7f26b83ff96e1f2b6a682f133852f6798a09c465da95921460cefb38474024989060200160405180910390a15b565b61523e80620000f36000396000f3fe60806040526004361061027c5760003560e01c8063895d73861161014f578063cac215bf116100c1578063e656557f1161007a578063e656557f146108b8578063ed35de16146108eb578063f09b2ec914610919578063f2fde38b14610939578063f3cd515d14610959578063fc9856b11461097a57600080fd5b8063cac215bf14610781578063ce09c0bc146107a1578063d2b50368146107c1578063d547741f146107e1578063e07be04914610801578063e133c2501461082f57600080fd5b8063967d4ee411610113578063967d4ee4146106b8578063a1854c9b146106cb578063a217fddf146106ec578063acfaf01714610701578063b984c6ec1461072f578063c41d2c351461076157600080fd5b8063895d7386146106035780638ca6eb1d146106185780638da5cb5b146106465780638fc80f601461066457806391d148541461069857600080fd5b806336568abe116101f3578063668fa8fb116101ac578063668fa8fb146105325780636f7cd99814610566578063715018a614610586578063721ff2da1461059b57806384b0196e146105bb5780638613b57c146105e357600080fd5b806336568abe146104755780633e413bee146104955780635158a826146104b657806351f344cd146104d657806360d204311461050457806364a210391461051b57600080fd5b80631db64938116102455780631db649381461039a578063202d33e9146103cb578063248a9ca3146103e25780632d656ad7146104125780632f2ff15d14610432578063351752741461045457600080fd5b80629f2ed01461028157806301ffc9a7146102d8578063061af1b7146102f85780631719938b1461033f5780631d43e1c014610378575b600080fd5b34801561028d57600080fd5b506102c361029c366004614081565b61011260209081526000938452604080852082529284528284209052825290205460ff1681565b60405190151581526020015b60405180910390f35b3480156102e457600080fd5b506102c36102f33660046140b6565b61099b565b34801561030457600080fd5b506103316103133660046140e0565b61010f60209081526000928352604080842090915290825290205481565b6040519081526020016102cf565b34801561034b57600080fd5b5061010054610360906001600160a01b031681565b6040516001600160a01b0390911681526020016102cf565b34801561038457600080fd5b5061038d6109d2565b6040516102cf9190614168565b3480156103a657600080fd5b506102c36103b536600461417b565b6101136020526000908152604090205460ff1681565b3480156103d757600080fd5b506103316101065481565b3480156103ee57600080fd5b506103316103fd366004614198565b60009081526065602052604090206001015490565b34801561041e57600080fd5b5060ff54610360906001600160a01b031681565b34801561043e57600080fd5b5061045261044d3660046140e0565b610a60565b005b34801561046057600080fd5b5061010154610360906001600160a01b031681565b34801561048157600080fd5b506104526104903660046140e0565b610a8a565b3480156104a157600080fd5b5061010454610360906001600160a01b031681565b3480156104c257600080fd5b506104526104d13660046142fb565b610b0d565b3480156104e257600080fd5b506103316104f1366004614198565b61010d6020526000908152604090205481565b34801561051057600080fd5b506103316101075481565b34801561052757600080fd5b506103316101085481565b34801561053e57600080fd5b506103317fec36009306c0d65d8f17cf6e077fb65e993fa9746aa26027e0ae82f8f79ff8d981565b34801561057257600080fd5b5061045261058136600461434a565b6111a7565b34801561059257600080fd5b506104526114cb565b3480156105a757600080fd5b506104526105b63660046142fb565b6114df565b3480156105c757600080fd5b506105d061192f565b6040516102cf979695949392919061436c565b3480156105ef57600080fd5b506104526105fe3660046145a7565b6119cd565b34801561060f57600080fd5b5061038d611ddb565b34801561062457600080fd5b50610331610633366004614198565b6101106020526000908152604090205481565b34801561065257600080fd5b506097546001600160a01b0316610360565b34801561067057600080fd5b506103317f1e5ca7d599fb35041afe8c30005054e07b396952ed6970c661389db329398daf81565b3480156106a457600080fd5b506102c36106b33660046140e0565b611de8565b6104526106c63660046147e9565b611e13565b3480156106d757600080fd5b5061010554610360906001600160a01b031681565b3480156106f857600080fd5b50610331600081565b34801561070d57600080fd5b5061033161071c366004614198565b61010c6020526000908152604090205481565b34801561073b57600080fd5b5061074f61074a366004614198565b61241f565b6040516102cf96959493929190614904565b34801561076d57600080fd5b5061045261077c366004614958565b61256f565b34801561078d57600080fd5b5061045261079c36600461434a565b612653565b3480156107ad57600080fd5b506104526107bc3660046149ba565b612994565b3480156107cd57600080fd5b506104526107dc366004614aa5565b612dbf565b3480156107ed57600080fd5b506104526107fc3660046140e0565b612dd3565b34801561080d57600080fd5b5061033161081c366004614198565b61010e6020526000908152604090205481565b34801561083b57600080fd5b5061088b61084a36600461434a565b610111602090815260009283526040808420909152908252902080546001820154600283015460038401546004850154600590950154939492939192909186565b604080519687526020870195909552938501929092526060840152608083015260a082015260c0016102cf565b3480156108c457600080fd5b506108d86108d3366004614198565b612df8565b6040516102cf9796959493929190614ae1565b3480156108f757600080fd5b50610331610906366004614198565b61010b6020526000908152604090205481565b34801561092557600080fd5b50610452610934366004614b33565b612f47565b34801561094557600080fd5b5061045261095436600461417b565b61347a565b34801561096557600080fd5b5061010354610360906001600160a01b031681565b34801561098657600080fd5b5061010254610360906001600160a01b031681565b60006001600160e01b03198216637965db0b60e01b14806109cc57506301ffc9a760e01b6001600160e01b03198316145b92915050565b60fe80546109df90614bfe565b80601f0160208091040260200160405190810160405280929190818152602001828054610a0b90614bfe565b8015610a585780601f10610a2d57610100808354040283529160200191610a58565b820191906000526020600020905b815481529060010190602001808311610a3b57829003601f168201915b505050505081565b600082815260656020526040902060010154610a7b816134f0565b610a8583836134fa565b505050565b6001600160a01b0381163314610aff5760405162461bcd60e51b815260206004820152602f60248201527f416363657373436f6e74726f6c3a2063616e206f6e6c792072656e6f756e636560448201526e103937b632b9903337b91039b2b63360891b60648201526084015b60405180910390fd5b610b098282613580565b5050565b600083118015610b205750610107548311155b610b3c5760405162461bcd60e51b8152600401610af690614c39565b600083815261010a602052604090208215801590610b5e575080600401548311155b610ba15760405162461bcd60e51b8152602060048201526014602482015273496e76616c6964206469766973696f6e2069642160601b6044820152606401610af6565b610100546040516331a9108f60e11b8152600481018690526001600160a01b0390911690636352211e9060240160206040518083038186803b158015610be657600080fd5b505afa158015610bfa573d6000803e3d6000fd5b505050506040513d601f19601f82011682018060405250810190610c1e9190614c67565b6001600160a01b0316336001600160a01b031614610c7e5760405162461bcd60e51b815260206004820152601b60248201527f4e6f742074686520627573696e657373206e6674206f776e65722100000000006044820152606401610af6565b8151816005016000828254610c939190614c9a565b90915550508151600084815260068301602052604081206003018054909190610cbd908490614c9a565b9091555050600381015460009081526101096020526040808220815160e0810190925280548392919082908290610cf390614bfe565b80601f0160208091040260200160405190810160405280929190818152602001828054610d1f90614bfe565b8015610d6c5780601f10610d4157610100808354040283529160200191610d6c565b820191906000526020600020905b815481529060010190602001808311610d4f57829003601f168201915b50505050508152602001600182018054610d8590614bfe565b80601f0160208091040260200160405190810160405280929190818152602001828054610db190614bfe565b8015610dfe5780601f10610dd357610100808354040283529160200191610dfe565b820191906000526020600020905b815481529060010190602001808311610de157829003601f168201915b50505050508152602001600282015481526020016003820154815260200160048201548152602001600582015481526020016006820160009054906101000a900460ff1615151515815250509050806060015183600501541115610f4657806060015184518460050154610e729190614cb2565b10610e8f5783518160800151610e889190614cc9565b9150610eb5565b80606001518360050154610ea39190614cb2565b8160800151610eb29190614cc9565b91505b6101045460ff546040516323b872dd60e01b81523360048201526001600160a01b039182166024820152604481018590529116906323b872dd90606401602060405180830381600087803b158015610f0c57600080fd5b505af1158015610f20573d6000803e3d6000fd5b505050506040513d601f19601f82011682018060405250810190610f449190614ce8565b505b6000858152600684016020526040812060020154905b8551811015611156576101025486516001600160a01b039091169062fdd58e90889084908110610f8e57610f8e614d05565b6020026020010151846040518363ffffffff1660e01b8152600401610fc89291906001600160a01b03929092168252602082015260400190565b60206040518083038186803b158015610fe057600080fd5b505afa158015610ff4573d6000803e3d6000fd5b505050506040513d601f19601f820116820180604052508101906110189190614d1b565b156110655760405162461bcd60e51b815260206004820152601b60248201527f416c7265616479206120736572766963652070726f76696465722100000000006044820152606401610af6565b6101025486516001600160a01b039091169063156e29f69088908490811061108f5761108f614d05565b60209081029190910101516040516001600160e01b031960e084901b1681526001600160a01b0390911660048201526024810185905260016044820152606401600060405180830381600087803b1580156110e957600080fd5b505af11580156110fd573d6000803e3d6000fd5b505050504261010f60008a8152602001908152602001600020600088848151811061112a5761112a614d05565b6020908102919091018101516001600160a01b0316825281019190915260400160002055600101610f5c565b508587336001600160a01b03167f42e386a48e645a10f14d22048650a929ac31a473c355940a8b641dc106f4914f88874260405161119693929190614d78565b60405180910390a450505050505050565b610100546040516331a9108f60e11b8152600481018490526001600160a01b0390911690636352211e9060240160206040518083038186803b1580156111ec57600080fd5b505afa158015611200573d6000803e3d6000fd5b505050506040513d601f19601f820116820180604052508101906112249190614c67565b6001600160a01b0316336001600160a01b03161461127e5760405162461bcd60e51b81526020600482015260176024820152764e6f742074686520627573696e657373206f776e65722160481b6044820152606401610af6565b60008111801561129057506127108111155b6112dc5760405162461bcd60e51b815260206004820181905260248201527f496e76616c696420646973747269627574696f6e2070657263656e74616765216044820152606401610af6565b600082815261010d602052604090205461134a5760405162461bcd60e51b815260206004820152602960248201527f4e6f2072657761726420746f6b656e7320617661696c61626c6520746f20646960448201526873747269627574652160b81b6064820152608401610af6565b600082815261010a602052604081206005015461136990612710614cc9565b600084815261010d60205260409020546113839084614cc9565b61138d9190614d9d565b6040805160c081018252600086815261010a602090815283822060050154835280830185905242838501526060830187905287825261010d815283822054608084015260a08301829052878252610111815283822061011090915292812080549495509193909190829061140090614dbf565b9182905550815260208082019290925260409081016000908120845181558484015160018201558483015160028201556060808601516003830155608080870151600484015560a09687015160059384015589845261011086528484205461010a87528585209093015461010d8752938590205485519485529584018990529383019490945292810185905242918101919091529091859133917fe54a639aed4e8a821095a1658bc5ef4371a9e6632c1d789f56f24746728c67c891015b60405180910390a4505050565b6114d36135e7565b6114dd6000613641565b565b6000831180156114f25750610107548311155b61150e5760405162461bcd60e51b8152600401610af690614c39565b600083815261010a602052604090208215801590611530575080600401548311155b6115735760405162461bcd60e51b8152602060048201526014602482015273496e76616c6964206469766973696f6e2069642160601b6044820152606401610af6565b610100546040516331a9108f60e11b8152600481018690526001600160a01b0390911690636352211e9060240160206040518083038186803b1580156115b857600080fd5b505afa1580156115cc573d6000803e3d6000fd5b505050506040513d601f19601f820116820180604052508101906115f09190614c67565b6001600160a01b0316336001600160a01b0316146116505760405162461bcd60e51b815260206004820152601b60248201527f4e6f742074686520627573696e657373206e6674206f776e65722100000000006044820152606401610af6565b8151600085815261010a602052604081206005018054909190611674908490614cb2565b90915550508151600085815261010a60209081526040808320878452600601909152812060030180549091906116ab908490614cb2565b9091555050600084815261010a60209081526040808320868452600601909152812060020154905b83518110156118e2576101025484516000916001600160a01b03169062fdd58e9087908590811061170657611706614d05565b6020026020010151856040518363ffffffff1660e01b81526004016117409291906001600160a01b03929092168252602082015260400190565b60206040518083038186803b15801561175857600080fd5b505afa15801561176c573d6000803e3d6000fd5b505050506040513d601f19601f820116820180604052508101906117909190614d1b565b116117dd5760405162461bcd60e51b815260206004820152601760248201527f4e6f74206120736572766963652070726f7669646572210000000000000000006044820152606401610af6565b600086815261010f602052604081208551829087908590811061180257611802614d05565b60200260200101516001600160a01b03166001600160a01b031681526020019081526020016000208190555061010260009054906101000a90046001600160a01b03166001600160a01b031663f5298aca85838151811061186557611865614d05565b60209081029190910101516040516001600160e01b031960e084901b1681526001600160a01b0390911660048201526024810185905260016044820152606401600060405180830381600087803b1580156118bf57600080fd5b505af11580156118d3573d6000803e3d6000fd5b505050508060010190506116d3565b508385336001600160a01b03167f97582a5e94dd73248f4242cda8787afa65a660ac4ce380992544765234c83c398642604051611920929190614dda565b60405180910390a45050505050565b60006060806000806000606060c9546000801b14801561194f575060ca54155b6119935760405162461bcd60e51b81526020600482015260156024820152741152540dcc4c8e88155b9a5b9a5d1a585b1a5e9959605a1b6044820152606401610af6565b61199b613693565b6119a3613725565b60408051600080825260208201909252600f60f81b9b939a50919850469750309650945092509050565b600054610100900460ff16158080156119ed5750600054600160ff909116105b80611a075750303b158015611a07575060005460ff166001145b611a6a5760405162461bcd60e51b815260206004820152602e60248201527f496e697469616c697a61626c653a20636f6e747261637420697320616c72656160448201526d191e481a5b9a5d1a585b1a5e995960921b6064820152608401610af6565b6000805460ff191660011790558015611a8d576000805461ff0019166101001790555b611a95613734565b611aa782600001518360200151613763565b611ab86000801b8360c001516134fa565b81518051611ace9160fd91602090910190613fc8565b506020808301518051611ae59260fe920190613fc8565b5060408281015160ff80546001600160a01b03199081166001600160a01b03938416179091556060850151610100805490921692169182179055815163266c45bb60e11b81526004810192909252601460448301527347726174696520427573696e657373204e46547360601b606483015260806024830152600360848301526223a12760e91b60a483015290634cd88b769060c401600060405180830381600087803b158015611b9557600080fd5b505af1158015611ba9573d6000803e3d6000fd5b5050505060808281015161010280546001600160a01b0319166001600160a01b0390921691821790556040805163266c45bb60e11b8152600480820192909252601c60448201527f47726174696520536572766963652050726f7669646572204e465473000000006064820152602481019390935260848301526323a9a82760e11b60a483015290634cd88b769060c401600060405180830381600087803b158015611c5457600080fd5b505af1158015611c68573d6000803e3d6000fd5b50505060e083015161010480546001600160a01b039283166001600160a01b03199182161790915560a085015161010580549190931691161790555060005b82610120015151811015611d0f57611cfd7f1e5ca7d599fb35041afe8c30005054e07b396952ed6970c661389db329398daf8461012001518381518110611cf057611cf0614d05565b60200260200101516134fa565b80611d0781614dbf565b915050611ca7565b5060005b82610100015151811015611d8357600161011360008561010001518481518110611d3f57611d3f614d05565b6020908102919091018101516001600160a01b03168252810191909152604001600020805460ff191691151591909117905580611d7b81614dbf565b915050611d13565b50611d92826101400151613794565b8015610b09576000805461ff0019169055604051600181527f7f26b83ff96e1f2b6a682f133852f6798a09c465da95921460cefb38474024989060200160405180910390a15050565b60fd80546109df90614bfe565b60009182526065602090815260408084206001600160a01b0393909316845291905290205460ff1690565b60008460600151118015611e2e575061010654846060015111155b611e7a5760405162461bcd60e51b815260206004820152601a60248201527f496e76616c696420427573696e657373204e46542054696572210000000000006044820152606401610af6565b80516001600160a01b03166000908152610113602052604090205460ff16611ee45760405162461bcd60e51b815260206004820152601760248201527f496e76616c6964205061796d656e74204d6574686f64210000000000000000006044820152606401610af6565b610100546040516370a0823160e01b81523360048201526001600160a01b03909116906370a082319060240160206040518083038186803b158015611f2857600080fd5b505afa158015611f3c573d6000803e3d6000fd5b505050506040513d601f19601f82011682018060405250810190611f609190614d1b565b15611fa35760405162461bcd60e51b8152602060048201526013602482015272416c7265616479206120627573696e6573732160681b6044820152606401610af6565b80516001600160a01b03166120005780602001513414611ffb5760405162461bcd60e51b8152602060048201526013602482015272496e76616c69642065746865722073656e742160681b6044820152606401610af6565b61204e565b341561204e5760405162461bcd60e51b815260206004820181905260248201527f45746865722073656e742077697468204552432d3230207075726368617365216044820152606401610af6565b606084015160009081526101096020526040808220815160e0810190925280548290829061207b90614bfe565b80601f01602080910402602001604051908101604052809291908181526020018280546120a790614bfe565b80156120f45780601f106120c9576101008083540402835291602001916120f4565b820191906000526020600020905b8154815290600101906020018083116120d757829003601f168201915b5050505050815260200160018201805461210d90614bfe565b80601f016020809104026020016040519081016040528092919081815260200182805461213990614bfe565b80156121865780601f1061215b57610100808354040283529160200191612186565b820191906000526020600020905b81548152906001019060200180831161216957829003601f168201915b50505091835250506002820154602082015260038201546040820152600482015460608201526005820154608082015260069091015460ff16151560a09091015260c081015190915061221b5760405162461bcd60e51b815260206004820152601b60248201527f496e61637469766520627573696e657373206e667420746965722100000000006044820152606401610af6565b600061010a60006101076000815461223290614dbf565b918290555081526020808201929092526040016000208751805191935061225d928492910190613fc8565b5060208087015180516122769260018501920190613fc8565b5060608601516003820155610107546000906122939087876138ac565b84519091506001600160a01b03166122c55760ff5460208501516122c0916001600160a01b031690613ba9565b61235a565b835160ff5460208601516040516323b872dd60e01b81523360048201526001600160a01b03928316602482015260448101919091529116906323b872dd90606401602060405180830381600087803b15801561232057600080fd5b505af1158015612334573d6000803e3d6000fd5b505050506040513d601f19601f820116820180604052508101906123589190614ce8565b505b61010054610107546040808a015190516334ff261960e21b81526001600160a01b039093169263d3fc986492612394923392600401614dfc565b600060405180830381600087803b1580156123ae57600080fd5b505af11580156123c2573d6000803e3d6000fd5b50505050866060015161010754336001600160a01b03167f941a721ffe6e39d5d0082ebdf9d1daf1299e88c4eab1b267b03df1f459122df78a600001518b602001518b51878a604001514260405161119696959493929190614ebe565b61010a6020526000908152604090208054819061243b90614bfe565b80601f016020809104026020016040519081016040528092919081815260200182805461246790614bfe565b80156124b45780601f10612489576101008083540402835291602001916124b4565b820191906000526020600020905b81548152906001019060200180831161249757829003601f168201915b5050505050908060010180546124c990614bfe565b80601f01602080910402602001604051908101604052809291908181526020018280546124f590614bfe565b80156125425780601f1061251757610100808354040283529160200191612542565b820191906000526020600020905b81548152906001019060200180831161252557829003601f168201915b5050505060028301546003840154600485015460059095015493946001600160a01b039092169390925086565b610100546040516331a9108f60e11b81526004810185905233916001600160a01b031690636352211e9060240160206040518083038186803b1580156125b457600080fd5b505afa1580156125c8573d6000803e3d6000fd5b505050506040513d601f19601f820116820180604052508101906125ec9190614c67565b6001600160a01b0316146126425760405162461bcd60e51b815260206004820152601b60248201527f4e6f742074686520427573696e657373204e4654204f776e65722100000000006044820152606401610af6565b61264d8383836138ac565b50505050565b6000821180156126665750610107548211155b6126825760405162461bcd60e51b8152600401610af690614c39565b600082815261011160209081526040808320848452909152902060028101546126ed5760405162461bcd60e51b815260206004820152601860248201527f496e76616c696420646973747269627574696f6e206e6f2100000000000000006044820152606401610af6565b600083815261010f602090815260408083203384529091529020541580159061273457506002810154600084815261010f6020908152604080832033845290915290205411155b61278c5760405162461bcd60e51b815260206004820152602360248201527f4e6f7420656c696769626c6520666f72207468697320646973747269627574696044820152626f6e2160e81b6064820152608401610af6565b33600090815261011260209081526040808320868452825280832085845290915290205460ff16156127f35760405162461bcd60e51b815260206004820152601060248201526f416c726561647920436c61696d65642160801b6044820152606401610af6565b6001810154600084815261010d602052604081208054909190612817908490614cb2565b90915550506001810154600084815261010e602052604081208054909190612840908490614c9a565b90915550503360009081526101126020908152604080832086845282528083208584529091528120805460ff191660019081179091556005830180549192909161288b908490614c9a565b9091555050600083815261010a602052604090819020600201546001830154915163a9059cbb60e01b815233600482015260248101929092526001600160a01b03169063a9059cbb90604401602060405180830381600087803b1580156128f157600080fd5b505af1158015612905573d6000803e3d6000fd5b505050506040513d601f19601f820116820180604052508101906129299190614ce8565b50600083815261010a602090815260409182902060020154600184015483516001600160a01b0390921682529181019190915242918101919091528290849033907f12b00229306d80fa2ad5b7b46ff6899cff3367bc6ba23db02d5444edfeb46eb0906060016114be565b61299c6135e7565b610100546040516370a0823160e01b81526001600160a01b038981166004830152909116906370a082319060240160206040518083038186803b1580156129e257600080fd5b505afa1580156129f6573d6000803e3d6000fd5b505050506040513d601f19601f82011682018060405250810190612a1a9190614d1b565b15612a5d5760405162461bcd60e51b8152602060048201526013602482015272416c7265616479206120627573696e6573732160681b6044820152606401610af6565b600083118015612a705750610106548311155b612abc5760405162461bcd60e51b815260206004820152601a60248201527f496e76616c696420427573696e657373204e46542054696572210000000000006044820152606401610af6565b60008381526101096020526040808220815160e08101909252805482908290612ae490614bfe565b80601f0160208091040260200160405190810160405280929190818152602001828054612b1090614bfe565b8015612b5d5780601f10612b3257610100808354040283529160200191612b5d565b820191906000526020600020905b815481529060010190602001808311612b4057829003601f168201915b50505050508152602001600182018054612b7690614bfe565b80601f0160208091040260200160405190810160405280929190818152602001828054612ba290614bfe565b8015612bef5780601f10612bc457610100808354040283529160200191612bef565b820191906000526020600020905b815481529060010190602001808311612bd257829003601f168201915b50505091835250506002820154602082015260038201546040820152600482015460608201526005820154608082015260069091015460ff16151560a09091015260c0810151909150612c845760405162461bcd60e51b815260206004820152601b60248201527f496e61637469766520627573696e657373206e667420746965722100000000006044820152606401610af6565b600061010a600061010760008154612c9b90614dbf565b918290555081526020808201929092526040016000208951909250612cc5918391908b0190613fc8565b508651612cdb90600183019060208a0190613fc8565b508481600301819055506000612cf56101075486866138ac565b61010054610107546040516334ff261960e21b81529293506001600160a01b039091169163d3fc986491612d30918e91908c90600401614dfc565b600060405180830381600087803b158015612d4a57600080fd5b505af1158015612d5e573d6000803e3d6000fd5b505050508561010754336001600160a01b03167f77a49b568749e57e47b3b05e04b4f2866140f2f23b5333e2e61c406f2a63d85f8d8d8d8b518842604051612dab96959493929190614f2f565b60405180910390a450505050505050505050565b612dc76135e7565b612dd081613794565b50565b600082815260656020526040902060010154612dee816134f0565b610a858383613580565b61010960205260009081526040902080548190612e1490614bfe565b80601f0160208091040260200160405190810160405280929190818152602001828054612e4090614bfe565b8015612e8d5780601f10612e6257610100808354040283529160200191612e8d565b820191906000526020600020905b815481529060010190602001808311612e7057829003601f168201915b505050505090806001018054612ea290614bfe565b80601f0160208091040260200160405190810160405280929190818152602001828054612ece90614bfe565b8015612f1b5780601f10612ef057610100808354040283529160200191612f1b565b820191906000526020600020905b815481529060010190602001808311612efe57829003601f168201915b505050600284015460038501546004860154600587015460069097015495969295919450925060ff1687565b6101005484516040516331a9108f60e11b81526001600160a01b0390921691636352211e91612f7c9160040190815260200190565b60206040518083038186803b158015612f9457600080fd5b505afa158015612fa8573d6000803e3d6000fd5b505050506040513d601f19601f82011682018060405250810190612fcc9190614c67565b6001600160a01b0316336001600160a01b0316146130265760405162461bcd60e51b81526020600482015260176024820152764e6f742074686520627573696e657373206f776e65722160481b6044820152606401610af6565b8351600090815261010c60205260408120805490919061304590614dbf565b91829055506060850151146130925760405162461bcd60e51b8152602060048201526013602482015272496e76616c6964206d696e74206e6f6e63652160681b6044820152606401610af6565b612710846040015111156130e85760405162461bcd60e51b815260206004820152601b60248201527f496e76616c6964206c6f636b20696e2070657263656e746167652100000000006044820152606401610af6565b8351600090815261010a60205260409020600201546001600160a01b0316806131b65761010554613121906001600160a01b0316613c94565b604051635c6d8da160e01b81529091506001600160a01b03821690635c6d8da190613156908790879087903090600401614f93565b600060405180830381600087803b15801561317057600080fd5b505af1158015613184573d6000803e3d6000fd5b50508651600090815261010a6020526040902060020180546001600160a01b0319166001600160a01b03851617905550505b6020808601518651600090815261010a8352604080822060030154825261010990935291822060050154612710916131ed91614cc9565b6131f79190614d9d565b90506000612710876020015188604001516132129190614cc9565b61321c9190614d9d565b8751600090815261010d6020526040812080549293508392909190613242908490614c9a565b90915550506040516340c10f1960e01b8152306004820152602481018290526001600160a01b038416906340c10f1990604401600060405180830381600087803b15801561328f57600080fd5b505af11580156132a3573d6000803e3d6000fd5b50505050826001600160a01b03166340c10f196132c86097546001600160a01b031690565b6040516001600160e01b031960e084901b1681526001600160a01b03909116600482015260248101859052604401600060405180830381600087803b15801561331057600080fd5b505af1158015613324573d6000803e3d6000fd5b50505050826001600160a01b03166340c10f193383858b602001516133499190614cb2565b6133539190614cb2565b6040516001600160e01b031960e085901b1681526001600160a01b0390921660048301526024820152604401600060405180830381600087803b15801561339957600080fd5b505af11580156133ad573d6000803e3d6000fd5b5050505086606001518760000151336001600160a01b03167fb198b575f4adbeb663cb0ac8f8e33304701b37decae7858951772b220d1849dc868b602001518c60400151896001600160a01b03166318160ddd6040518163ffffffff1660e01b815260040160206040518083038186803b15801561342a57600080fd5b505afa15801561343e573d6000803e3d6000fd5b505050506040513d601f19601f820116820180604052508101906134629190614d1b565b8d8d8d42604051611196989796959493929190614fe6565b6134826135e7565b6001600160a01b0381166134e75760405162461bcd60e51b815260206004820152602660248201527f4f776e61626c653a206e6577206f776e657220697320746865207a65726f206160448201526564647265737360d01b6064820152608401610af6565b612dd081613641565b612dd08133613d2e565b6135048282611de8565b610b095760008281526065602090815260408083206001600160a01b03851684529091529020805460ff1916600117905561353c3390565b6001600160a01b0316816001600160a01b0316837f2f8788117e7eff1d82e926ec794901d17c78024a50270940304540a733656f0d60405160405180910390a45050565b61358a8282611de8565b15610b095760008281526065602090815260408083206001600160a01b0385168085529252808320805460ff1916905551339285917ff6391f5c32d9c69d2a47ea670b442974b53935d1edc7fd64eb21e047a839171b9190a45050565b6097546001600160a01b031633146114dd5760405162461bcd60e51b815260206004820181905260248201527f4f776e61626c653a2063616c6c6572206973206e6f7420746865206f776e65726044820152606401610af6565b609780546001600160a01b038381166001600160a01b0319831681179093556040519116919082907f8be0079c531659141344cd1fd0a4f28419497f9722a3daafe3b4186f6b6457e090600090a35050565b606060cb80546136a290614bfe565b80601f01602080910402602001604051908101604052809291908181526020018280546136ce90614bfe565b801561371b5780601f106136f05761010080835404028352916020019161371b565b820191906000526020600020905b8154815290600101906020018083116136fe57829003601f168201915b5050505050905090565b606060cc80546136a290614bfe565b600054610100900460ff1661375b5760405162461bcd60e51b8152600401610af690615058565b6114dd613d87565b600054610100900460ff1661378a5760405162461bcd60e51b8152600401610af690615058565b610b098282613db7565b60005b8151811015610b09578181815181106137b2576137b2614d05565b602090810291909101810151610106805460010190819055600090815261010983526040902081518051929391926137ed9284920190613fc8565b5060208281015180516138069260018501920190613fc8565b5060408201516002820155606082015160038201556080820151600482015560a0820151600582015560c0909101516006909101805460ff191691151591909117905561010654825133907f26bbc462292088c003fb29ee4a40964867e05dc73520adbd07e0dec1a9f87a4a9085908590811061388557613885614d05565b60200260200101514260405161389c9291906150a3565b60405180910390a3600101613797565b606081518351146138f15760405162461bcd60e51b815260206004820152600f60248201526e496e76616c6964206172726179732160881b6044820152606401610af6565b600083516001600160401b0381111561390c5761390c6141b1565b60405190808252806020026020018201604052801561396857816020015b6139556040518060800160405280606081526020016060815260200160008152602001600081525090565b81526020019060019003908161392a5790505b50905060005b8451811015613ba057600061010a60008881526020019081526020016000209050600060405180608001604052808885815181106139ae576139ae614d05565b602002602001015181526020018785815181106139cd576139cd614d05565b602002602001015181526020016101086000815460010191905081905581526020016000815250905080848481518110613a0957613a09614d05565b60209081029190910181019190915260048301805460010190819055600090815260068401825260409020825180518493613a48928492910190613fc8565b506020828101518051613a619260018501920190613fc8565b5060408281015160028301556060909201516003909101556101088054600090815261010b6020529190912089905561010254905487516001600160a01b039092169163162094c49190899087908110613abd57613abd614d05565b60200260200101516040518363ffffffff1660e01b8152600401613ae2929190615126565b600060405180830381600087803b158015613afc57600080fd5b505af1158015613b10573d6000803e3d6000fd5b505050506101085488336001600160a01b03167fde712bbca32e7a61f42ff0d733ebecc657264dff99a5f0858667ece10238197f85600401548b8881518110613b5b57613b5b614d05565b60200260200101518b8981518110613b7557613b75614d05565b602002602001015142604051613b8e949392919061513f565b60405180910390a4505060010161396e565b50949350505050565b80471015613bf95760405162461bcd60e51b815260206004820152601b60248201527f496e73756666696369656e74206d617469632062616c616e63652100000000006044820152606401610af6565b6000826001600160a01b03168260405160006040518083038185875af1925050503d8060008114613c46576040519150601f19603f3d011682016040523d82523d6000602084013e613c4b565b606091505b5050905080610a855760405162461bcd60e51b81526020600482015260156024820152744d41544943207061796d656e74206661696c65642160581b6044820152606401610af6565b6000763d602d80600a3d3981f3363d3d373d3d3d363d730000008260601b60e81c176000526e5af43d82803e903d91602b57fd5bf38260781b17602052603760096000f090506001600160a01b038116613d295760405162461bcd60e51b8152602060048201526016602482015275115490cc4c4d8dce8818dc99585d194819985a5b195960521b6044820152606401610af6565b919050565b613d388282611de8565b610b0957613d4581613e14565b613d50836020613e26565b604051602001613d6192919061517c565b60408051601f198184030181529082905262461bcd60e51b8252610af691600401614168565b600054610100900460ff16613dae5760405162461bcd60e51b8152600401610af690615058565b6114dd33613641565b600054610100900460ff16613dde5760405162461bcd60e51b8152600401610af690615058565b8151613df19060cb906020850190613fc8565b508051613e059060cc906020840190613fc8565b5050600060c981905560ca5550565b60606109cc6001600160a01b03831660145b60606000613e35836002614cc9565b613e40906002614c9a565b6001600160401b03811115613e5757613e576141b1565b6040519080825280601f01601f191660200182016040528015613e81576020820181803683370190505b509050600360fc1b81600081518110613e9c57613e9c614d05565b60200101906001600160f81b031916908160001a905350600f60fb1b81600181518110613ecb57613ecb614d05565b60200101906001600160f81b031916908160001a9053506000613eef846002614cc9565b613efa906001614c9a565b90505b6001811115613f72576f181899199a1a9b1b9c1cb0b131b232b360811b85600f1660108110613f2e57613f2e614d05565b1a60f81b828281518110613f4457613f44614d05565b60200101906001600160f81b031916908160001a90535060049490941c93613f6b816151f1565b9050613efd565b508315613fc15760405162461bcd60e51b815260206004820181905260248201527f537472696e67733a20686578206c656e67746820696e73756666696369656e746044820152606401610af6565b9392505050565b828054613fd490614bfe565b90600052602060002090601f016020900481019282613ff6576000855561403c565b82601f1061400f57805160ff191683800117855561403c565b8280016001018555821561403c579182015b8281111561403c578251825591602001919060010190614021565b5061404892915061404c565b5090565b5b80821115614048576000815560010161404d565b6001600160a01b0381168114612dd057600080fd5b8035613d2981614061565b60008060006060848603121561409657600080fd5b83356140a181614061565b95602085013595506040909401359392505050565b6000602082840312156140c857600080fd5b81356001600160e01b031981168114613fc157600080fd5b600080604083850312156140f357600080fd5b82359150602083013561410581614061565b809150509250929050565b60005b8381101561412b578181015183820152602001614113565b8381111561264d5750506000910152565b60008151808452614154816020860160208601614110565b601f01601f19169290920160200192915050565b602081526000613fc1602083018461413c565b60006020828403121561418d57600080fd5b8135613fc181614061565b6000602082840312156141aa57600080fd5b5035919050565b634e487b7160e01b600052604160045260246000fd5b60405160e081016001600160401b03811182821017156141e9576141e96141b1565b60405290565b60405161016081016001600160401b03811182821017156141e9576141e96141b1565b604051608081016001600160401b03811182821017156141e9576141e96141b1565b604051601f8201601f191681016001600160401b038111828210171561425c5761425c6141b1565b604052919050565b60006001600160401b0382111561427d5761427d6141b1565b5060051b60200190565b600082601f83011261429857600080fd5b813560206142ad6142a883614264565b614234565b82815260059290921b840181019181810190868411156142cc57600080fd5b8286015b848110156142f05780356142e381614061565b83529183019183016142d0565b509695505050505050565b60008060006060848603121561431057600080fd5b833592506020840135915060408401356001600160401b0381111561433457600080fd5b61434086828701614287565b9150509250925092565b6000806040838503121561435d57600080fd5b50508035926020909101359150565b60ff60f81b881681526000602060e08184015261438c60e084018a61413c565b838103604085015261439e818a61413c565b606085018990526001600160a01b038816608086015260a0850187905284810360c0860152855180825283870192509083019060005b818110156143f0578351835292840192918401916001016143d4565b50909c9b505050505050505050505050565b600082601f83011261441357600080fd5b81356001600160401b0381111561442c5761442c6141b1565b61443f601f8201601f1916602001614234565b81815284602083860101111561445457600080fd5b816020850160208301376000918101602001919091529392505050565b8015158114612dd057600080fd5b8035613d2981614471565b600082601f83011261449b57600080fd5b813560206144ab6142a883614264565b82815260059290921b840181019181810190868411156144ca57600080fd5b8286015b848110156142f05780356001600160401b03808211156144ee5760008081fd5b9088019060e0828b03601f19018113156145085760008081fd5b6145106141c7565b87840135838111156145225760008081fd5b6145308d8a83880101614402565b825250604080850135848111156145475760008081fd5b6145558e8b83890101614402565b8a84015250606093508385013581830152506080808501358483015260a0935083850135818301525060c0808501358483015261459383860161447f565b9082015286525050509183019183016144ce565b6000602082840312156145b957600080fd5b81356001600160401b03808211156145d057600080fd5b9083019061016082860312156145e557600080fd5b6145ed6141ef565b8235828111156145fc57600080fd5b61460887828601614402565b82525060208301358281111561461d57600080fd5b61462987828601614402565b60208301525061463b60408401614076565b604082015261464c60608401614076565b606082015261465d60808401614076565b608082015261466e60a08401614076565b60a082015261467f60c08401614076565b60c082015261469060e08401614076565b60e082015261010080840135838111156146a957600080fd5b6146b588828701614287565b82840152505061012080840135838111156146cf57600080fd5b6146db88828701614287565b82840152505061014080840135838111156146f557600080fd5b6147018882870161448a565b918301919091525095945050505050565b600082601f83011261472357600080fd5b813560206147336142a883614264565b82815260059290921b8401810191818101908684111561475257600080fd5b8286015b848110156142f05780356001600160401b038111156147755760008081fd5b6147838986838b0101614402565b845250918301918301614756565b6000604082840312156147a357600080fd5b604051604081018181106001600160401b03821117156147c5576147c56141b1565b60405290508082356147d681614061565b8152602092830135920191909152919050565b60008060008060a085870312156147ff57600080fd5b84356001600160401b038082111561481657600080fd5b908601906080828903121561482a57600080fd5b614832614212565b82358281111561484157600080fd5b61484d8a828601614402565b82525060208301358281111561486257600080fd5b61486e8a828601614402565b60208301525060408301358281111561488657600080fd5b6148928a828601614402565b604083015250606083013560608201528096505060208701359150808211156148ba57600080fd5b6148c688838901614712565b945060408701359150808211156148dc57600080fd5b506148e987828801614712565b9250506148f98660608701614791565b905092959194509250565b60c08152600061491760c083018961413c565b8281036020840152614929818961413c565b6001600160a01b0397909716604084015250506060810193909352608083019190915260a09091015292915050565b60008060006060848603121561496d57600080fd5b8335925060208401356001600160401b038082111561498b57600080fd5b61499787838801614712565b935060408601359150808211156149ad57600080fd5b5061434086828701614712565b600080600080600080600060e0888a0312156149d557600080fd5b6149de88614076565b965060208801356001600160401b03808211156149fa57600080fd5b614a068b838c01614402565b975060408a0135915080821115614a1c57600080fd5b614a288b838c01614402565b965060608a0135915080821115614a3e57600080fd5b614a4a8b838c01614402565b955060808a0135945060a08a0135915080821115614a6757600080fd5b614a738b838c01614712565b935060c08a0135915080821115614a8957600080fd5b50614a968a828b01614712565b91505092959891949750929550565b600060208284031215614ab757600080fd5b81356001600160401b03811115614acd57600080fd5b614ad98482850161448a565b949350505050565b60e081526000614af460e083018a61413c565b8281036020840152614b06818a61413c565b604084019890985250506060810194909452608084019290925260a0830152151560c09091015292915050565b60008060008084860360e0811215614b4a57600080fd5b6080811215614b5857600080fd5b50614b61614212565b853581526020860135602082015260408601356040820152606086013560608201528094505060808501356001600160401b0380821115614ba157600080fd5b614bad88838901614402565b945060a0870135915080821115614bc357600080fd5b614bcf88838901614402565b935060c0870135915080821115614be557600080fd5b50614bf287828801614402565b91505092959194509250565b600181811c90821680614c1257607f821691505b60208210811415614c3357634e487b7160e01b600052602260045260246000fd5b50919050565b602080825260149082015273496e76616c696420627573696e6573732069642160601b604082015260600190565b600060208284031215614c7957600080fd5b8151613fc181614061565b634e487b7160e01b600052601160045260246000fd5b60008219821115614cad57614cad614c84565b500190565b600082821015614cc457614cc4614c84565b500390565b6000816000190483118215151615614ce357614ce3614c84565b500290565b600060208284031215614cfa57600080fd5b8151613fc181614471565b634e487b7160e01b600052603260045260246000fd5b600060208284031215614d2d57600080fd5b5051919050565b600081518084526020808501945080840160005b83811015614d6d5781516001600160a01b031687529582019590820190600101614d48565b509495945050505050565b606081526000614d8b6060830186614d34565b60208301949094525060400152919050565b600082614dba57634e487b7160e01b600052601260045260246000fd5b500490565b6000600019821415614dd357614dd3614c84565b5060010190565b604081526000614ded6040830185614d34565b90508260208301529392505050565b60018060a01b0384168152826020820152606060408201526000614e23606083018461413c565b95945050505050565b600082825180855260208086019550808260051b84010181860160005b84811015614eb157601f19868403018952815160808151818652614e6f8287018261413c565b9150508582015185820387870152614e87828261413c565b60408481015190880152606093840151939096019290925250509783019790830190600101614e49565b5090979650505050505050565b60e081526000614ed160e083018961413c565b8281036020840152614ee3818961413c565b90508660408401528281036060840152614efd8187614e2c565b838103608085015260048152635553444360e01b602082015260a0840195909552505060c00152604001949350505050565b6001600160a01b038716815260c060208201819052600090614f539083018861413c565b8281036040840152614f65818861413c565b90508560608401528281036080840152614f7f8186614e2c565b9150508260a0830152979650505050505050565b608081526000614fa6608083018761413c565b8281036020840152614fb8818761413c565b90508281036040840152614fcc818661413c565b91505060018060a01b038316606083015295945050505050565b600061010060018060a01b038b16835289602084015288604084015287606084015280608084015261501a8184018861413c565b905082810360a084015261502e818761413c565b905082810360c0840152615042818661413c565b9150508260e08301529998505050505050505050565b6020808252602b908201527f496e697469616c697a61626c653a20636f6e7472616374206973206e6f74206960408201526a6e697469616c697a696e6760a81b606082015260800190565b604081526000835160e060408401526150c061012084018261413c565b90506020850151603f198483030160608501526150dd828261413c565b91505060408501516080840152606085015160a0840152608085015160c084015260a085015160e084015260c08501511515610100840152809150508260208301529392505050565b828152604060208201526000614ad9604083018461413c565b848152608060208201526000615158608083018661413c565b828103604084015261516a818661413c565b91505082606083015295945050505050565b7f416363657373436f6e74726f6c3a206163636f756e74200000000000000000008152600083516151b4816017850160208801614110565b7001034b99036b4b9b9b4b733903937b6329607d1b60179184019182015283516151e5816028840160208801614110565b01602801949350505050565b60008161520057615200614c84565b50600019019056fea264697066735822122057ebac45a96523b07a6ef40657a099b98c812bc6d9de46a5e12e43bd32a30b4464736f6c63430008090033",
    "linkReferences": {}
  },
  "methodIdentifiers": {
    "DEFAULT_ADMIN_ROLE()": "a217fddf",
    "GRATIE_PLATFORM_ADMIN()": "8fc80f60",
    "_PAYMENT_TYPEHASH()": "668fa8fb",
    "addBusinessNftTiers((string,string,uint256,uint256,uint256,uint256,bool)[])": "d2b50368",
    "addDivisionsInBusiness(uint256,string[],string[])": "c41d2c35",
    "businessNFT()": "35175274",
    "businessNFTs()": "1719938b",
    "businessNftTiers(uint256)": "e656557f",
    "businesses(uint256)": "b984c6ec",
    "claimRewardTokens(uint256,uint256)": "cac215bf",
    "divisionNftIdToBusinessNftId(uint256)": "ed35de16",
    "domainName()": "895d7386",
    "domainVersion()": "1d43e1c0",
    "eip712Domain()": "84b0196e",
    "generateRewardTokens((uint256,uint256,uint256,uint256),string,string,string)": "f09b2ec9",
    "getRoleAdmin(bytes32)": "248a9ca3",
    "grantRole(bytes32,address)": "2f2ff15d",
    "hasClaimedRewards(address,uint256,uint256)": "009f2ed0",
    "hasRole(bytes32,address)": "91d14854",
    "initialize((string,string,address,address,address,address,address,address,address[],address[],(string,string,uint256,uint256,uint256,uint256,bool)[]))": "8613b57c",
    "isValidPaymentMethod(address)": "1db64938",
    "owner()": "8da5cb5b",
    "platformFeeReceiver()": "2d656ad7",
    "registerBusiness((string,string,string,uint256),string[],string[],(address,uint256))": "967d4ee4",
    "registerBusinessByOwner(address,string,string,string,uint256,string[],string[])": "ce09c0bc",
    "registerServiceProviders(uint256,uint256,address[])": "5158a826",
    "removeServiceProviders(uint256,uint256,address[])": "721ff2da",
    "renounceOwnership()": "715018a6",
    "renounceRole(bytes32,address)": "36568abe",
    "revokeRole(bytes32,address)": "d547741f",
    "rewardDistributions(uint256,uint256)": "e133c250",
    "rewardDistributionsCreated(uint256)": "8ca6eb1d",
    "rewardTokenImplementation()": "a1854c9b",
    "rewardTokenMints(uint256)": "acfaf017",
    "rewardTokensAvailable(uint256)": "51f344cd",
    "rewardTokensDistributed(uint256)": "e07be049",
    "serviceProviderNFT()": "f3cd515d",
    "serviceProviderNFTs()": "fc9856b1",
    "serviceProviderRegisteredAt(uint256,address)": "061af1b7",
    "startRewardDistribution(uint256,uint256)": "6f7cd998",
    "supportsInterface(bytes4)": "01ffc9a7",
    "totalBusinessNftTiers()": "202d33e9",
    "totalBusinesses()": "60d20431",
    "totalDivisions()": "64a21039",
    "transferOwnership(address)": "f2fde38b",
    "usdc()": "3e413bee"
  },
  "id": 71
}