{
  "abi": [
    {
      "inputs": [],
      "stateMutability": "nonpayable",
      "type": "constructor"
    },
    {
      "anonymous": false,
      "inputs": [
        {
          "indexed": true,
          "internalType": "address",
          "name": "owner",
          "type": "address"
        },
        {
          "indexed": true,
          "internalType": "address",
          "name": "spender",
          "type": "address"
        },
        {
          "indexed": false,
          "internalType": "uint256",
          "name": "value",
          "type": "uint256"
        }
      ],
      "name": "Approval",
      "type": "event"
    },
    {
      "anonymous": false,
      "inputs": [
        {
          "indexed": false,
          "internalType": "uint8",
          "name": "version",
          "type": "uint8"
        }
      ],
      "name": "Initialized",
      "type": "event"
    },
    {
      "anonymous": false,
      "inputs": [
        {
          "indexed": true,
          "internalType": "address",
          "name": "previousOwner",
          "type": "address"
        },
        {
          "indexed": true,
          "internalType": "address",
          "name": "newOwner",
          "type": "address"
        }
      ],
      "name": "OwnershipTransferred",
      "type": "event"
    },
    {
      "anonymous": false,
      "inputs": [
        {
          "indexed": true,
          "internalType": "address",
          "name": "from",
          "type": "address"
        },
        {
          "indexed": true,
          "internalType": "address",
          "name": "to",
          "type": "address"
        },
        {
          "indexed": false,
          "internalType": "uint256",
          "name": "value",
          "type": "uint256"
        }
      ],
      "name": "Transfer",
      "type": "event"
    },
    {
      "inputs": [
        {
          "internalType": "address",
          "name": "owner",
          "type": "address"
        },
        {
          "internalType": "address",
          "name": "spender",
          "type": "address"
        }
      ],
      "name": "allowance",
      "outputs": [
        {
          "internalType": "uint256",
          "name": "",
          "type": "uint256"
        }
      ],
      "stateMutability": "view",
      "type": "function"
    },
    {
      "inputs": [
        {
          "internalType": "address",
          "name": "spender",
          "type": "address"
        },
        {
          "internalType": "uint256",
          "name": "amount",
          "type": "uint256"
        }
      ],
      "name": "approve",
      "outputs": [
        {
          "internalType": "bool",
          "name": "",
          "type": "bool"
        }
      ],
      "stateMutability": "nonpayable",
      "type": "function"
    },
    {
      "inputs": [
        {
          "internalType": "address",
          "name": "account",
          "type": "address"
        }
      ],
      "name": "balanceOf",
      "outputs": [
        {
          "internalType": "uint256",
          "name": "",
          "type": "uint256"
        }
      ],
      "stateMutability": "view",
      "type": "function"
    },
    {
      "inputs": [
        {
          "internalType": "uint256",
          "name": "_amount",
          "type": "uint256"
        }
      ],
      "name": "burn",
      "outputs": [],
      "stateMutability": "nonpayable",
      "type": "function"
    },
    {
      "inputs": [],
      "name": "claim",
      "outputs": [],
      "stateMutability": "nonpayable",
      "type": "function"
    },
    {
      "inputs": [],
      "name": "claimAmount",
      "outputs": [
        {
          "internalType": "uint256",
          "name": "",
          "type": "uint256"
        }
      ],
      "stateMutability": "view",
      "type": "function"
    },
    {
      "inputs": [],
      "name": "claimLimit",
      "outputs": [
        {
          "internalType": "uint256",
          "name": "",
          "type": "uint256"
        }
      ],
      "stateMutability": "view",
      "type": "function"
    },
    {
      "inputs": [
        {
          "internalType": "address",
          "name": "",
          "type": "address"
        }
      ],
      "name": "claims",
      "outputs": [
        {
          "internalType": "uint256",
          "name": "",
          "type": "uint256"
        }
      ],
      "stateMutability": "view",
      "type": "function"
    },
    {
      "inputs": [],
      "name": "decimals",
      "outputs": [
        {
          "internalType": "uint8",
          "name": "",
          "type": "uint8"
        }
      ],
      "stateMutability": "view",
      "type": "function"
    },
    {
      "inputs": [
        {
          "internalType": "address",
          "name": "spender",
          "type": "address"
        },
        {
          "internalType": "uint256",
          "name": "subtractedValue",
          "type": "uint256"
        }
      ],
      "name": "decreaseAllowance",
      "outputs": [
        {
          "internalType": "bool",
          "name": "",
          "type": "bool"
        }
      ],
      "stateMutability": "nonpayable",
      "type": "function"
    },
    {
      "inputs": [],
      "name": "iconURI",
      "outputs": [
        {
          "internalType": "string",
          "name": "",
          "type": "string"
        }
      ],
      "stateMutability": "view",
      "type": "function"
    },
    {
      "inputs": [
        {
          "internalType": "address",
          "name": "spender",
          "type": "address"
        },
        {
          "internalType": "uint256",
          "name": "addedValue",
          "type": "uint256"
        }
      ],
      "name": "increaseAllowance",
      "outputs": [
        {
          "internalType": "bool",
          "name": "",
          "type": "bool"
        }
      ],
      "stateMutability": "nonpayable",
      "type": "function"
    },
    {
      "inputs": [
        {
          "internalType": "string",
          "name": "_name",
          "type": "string"
        },
        {
          "internalType": "string",
          "name": "_symbol",
          "type": "string"
        },
        {
          "internalType": "string",
          "name": "_iconURI",
          "type": "string"
        },
        {
          "internalType": "uint256",
          "name": "_supply",
          "type": "uint256"
        },
        {
          "internalType": "uint256",
          "name": "_claimAmount",
          "type": "uint256"
        }
      ],
      "name": "initialize",
      "outputs": [],
      "stateMutability": "nonpayable",
      "type": "function"
    },
    {
      "inputs": [
        {
          "internalType": "address",
          "name": "_receiver",
          "type": "address"
        },
        {
          "internalType": "uint256",
          "name": "_amount",
          "type": "uint256"
        }
      ],
      "name": "mint",
      "outputs": [],
      "stateMutability": "nonpayable",
      "type": "function"
    },
    {
      "inputs": [],
      "name": "name",
      "outputs": [
        {
          "internalType": "string",
          "name": "",
          "type": "string"
        }
      ],
      "stateMutability": "view",
      "type": "function"
    },
    {
      "inputs": [],
      "name": "owner",
      "outputs": [
        {
          "internalType": "address",
          "name": "",
          "type": "address"
        }
      ],
      "stateMutability": "view",
      "type": "function"
    },
    {
      "inputs": [],
      "name": "renounceOwnership",
      "outputs": [],
      "stateMutability": "nonpayable",
      "type": "function"
    },
    {
      "inputs": [],
      "name": "symbol",
      "outputs": [
        {
          "internalType": "string",
          "name": "",
          "type": "string"
        }
      ],
      "stateMutability": "view",
      "type": "function"
    },
    {
      "inputs": [],
      "name": "totalSupply",
      "outputs": [
        {
          "internalType": "uint256",
          "name": "",
          "type": "uint256"
        }
      ],
      "stateMutability": "view",
      "type": "function"
    },
    {
      "inputs": [
        {
          "internalType": "address",
          "name": "to",
          "type": "address"
        },
        {
          "internalType": "uint256",
          "name": "amount",
          "type": "uint256"
        }
      ],
      "name": "transfer",
      "outputs": [
        {
          "internalType": "bool",
          "name": "",
          "type": "bool"
        }
      ],
      "stateMutability": "nonpayable",
      "type": "function"
    },
    {
      "inputs": [
        {
          "internalType": "address",
          "name": "from",
          "type": "address"
        },
        {
          "internalType": "address",
          "name": "to",
          "type": "address"
        },
        {
          "internalType": "uint256",
          "name": "amount",
          "type": "uint256"
        }
      ],
      "name": "transferFrom",
      "outputs": [
        {
          "internalType": "bool",
          "name": "",
          "type": "bool"
        }
      ],
      "stateMutability": "nonpayable",
      "type": "function"
    },
    {
      "inputs": [
        {
          "internalType": "address",
          "name": "newOwner",
          "type": "address"
        }
      ],
      "name": "transferOwnership",
      "outputs": [],
      "stateMutability": "nonpayable",
      "type": "function"
    },
    {
      "inputs": [
        {
          "internalType": "uint256",
          "name": "_claimLimit",
          "type": "uint256"
        }
      ],
      "name": "updateClaimLimit",
      "outputs": [],
      "stateMutability": "nonpayable",
      "type": "function"
    }
  ],
  "bytecode": {
    "object": "0x608060405234801561001057600080fd5b5061001961001e565b6100dd565b600054610100900460ff161561008a5760405162461bcd60e51b815260206004820152602760248201527f496e697469616c697a61626c653a20636f6e747261637420697320696e697469604482015266616c697a696e6760c81b606482015260840160405180910390fd5b60005460ff908116146100db576000805460ff191660ff9081179091556040519081527f7f26b83ff96e1f2b6a682f133852f6798a09c465da95921460cefb38474024989060200160405180910390a15b565b6112e0806100ec6000396000f3fe608060405234801561001057600080fd5b506004361061014d5760003560e01c806370a08231116100c3578063a457c2d71161007c578063a457c2d714610295578063a9059cbb146102a8578063be610676146102bb578063c6788bdd146102c4578063dd62ed3e146102e4578063f2fde38b146102f757600080fd5b806370a0823114610225578063715018a61461024e57806380ddd09f14610256578063830953ab146102695780638da5cb5b1461027257806395d89b411461028d57600080fd5b806323b872dd1161011557806323b872dd146101c2578063313ce567146101d557806339509351146101e457806340c10f19146101f757806342966c681461020a5780634e71d92d1461021d57600080fd5b806306fdde0314610152578063095ea7b31461017057806318160ddd146101935780631f910971146101a557806322370ae7146101ad575b600080fd5b61015a61030a565b6040516101679190610f42565b60405180910390f35b61018361017e366004610fb3565b61039c565b6040519015158152602001610167565b6035545b604051908152602001610167565b61015a6103b4565b6101c06101bb366004610fdd565b610442565b005b6101836101d0366004610ff6565b61044f565b60405160128152602001610167565b6101836101f2366004610fb3565b610473565b6101c0610205366004610fb3565b610495565b6101c0610218366004610fdd565b6104ab565b6101c06104b8565b610197610233366004611032565b6001600160a01b031660009081526033602052604090205490565b6101c0610544565b6101c06102643660046110f7565b610558565b61019760985481565b6065546040516001600160a01b039091168152602001610167565b61015a6106ae565b6101836102a3366004610fb3565b6106bd565b6101836102b6366004610fb3565b610738565b61019760995481565b6101976102d2366004611032565b609a6020526000908152604090205481565b6101976102f2366004611191565b610746565b6101c0610305366004611032565b610771565b606060368054610319906111c4565b80601f0160208091040260200160405190810160405280929190818152602001828054610345906111c4565b80156103925780601f1061036757610100808354040283529160200191610392565b820191906000526020600020905b81548152906001019060200180831161037557829003601f168201915b5050505050905090565b6000336103aa8185856107e7565b5060019392505050565b609780546103c1906111c4565b80601f01602080910402602001604051908101604052809291908181526020018280546103ed906111c4565b801561043a5780601f1061040f5761010080835404028352916020019161043a565b820191906000526020600020905b81548152906001019060200180831161041d57829003601f168201915b505050505081565b61044a61090c565b609955565b60003361045d858285610966565b6104688585856109e0565b506001949350505050565b6000336103aa8185856104868383610746565b6104909190611215565b6107e7565b61049d61090c565b6104a78282610b8b565b5050565b6104b53382610c4c565b50565b609954336000908152609a602052604090205411156105155760405162461bcd60e51b8152602060048201526014602482015273436c61696d204c696d697420726561636865642160601b60448201526064015b60405180910390fd5b336000908152609a6020526040812080549091906105329061122d565b909155506098546104b5903390610738565b61054c61090c565b6105566000610d7d565b565b600054610100900460ff16158080156105785750600054600160ff909116105b806105925750303b158015610592575060005460ff166001145b6105f55760405162461bcd60e51b815260206004820152602e60248201527f496e697469616c697a61626c653a20636f6e747261637420697320616c72656160448201526d191e481a5b9a5d1a585b1a5e995960921b606482015260840161050c565b6000805460ff191660011790558015610618576000805461ff0019166101001790555b835161062b906097906020870190610ea9565b50610634610dcf565b61063e8686610dfe565b6106513361064c8486611248565b610b8b565b61065b3083610b8b565b609882905580156106a6576000805461ff0019169055604051600181527f7f26b83ff96e1f2b6a682f133852f6798a09c465da95921460cefb38474024989060200160405180910390a15b505050505050565b606060378054610319906111c4565b600033816106cb8286610746565b90508381101561072b5760405162461bcd60e51b815260206004820152602560248201527f45524332303a2064656372656173656420616c6c6f77616e63652062656c6f77604482015264207a65726f60d81b606482015260840161050c565b61046882868684036107e7565b6000336103aa8185856109e0565b6001600160a01b03918216600090815260346020908152604080832093909416825291909152205490565b61077961090c565b6001600160a01b0381166107de5760405162461bcd60e51b815260206004820152602660248201527f4f776e61626c653a206e6577206f776e657220697320746865207a65726f206160448201526564647265737360d01b606482015260840161050c565b6104b581610d7d565b6001600160a01b0383166108495760405162461bcd60e51b8152602060048201526024808201527f45524332303a20617070726f76652066726f6d20746865207a65726f206164646044820152637265737360e01b606482015260840161050c565b6001600160a01b0382166108aa5760405162461bcd60e51b815260206004820152602260248201527f45524332303a20617070726f766520746f20746865207a65726f206164647265604482015261737360f01b606482015260840161050c565b6001600160a01b0383811660008181526034602090815260408083209487168084529482529182902085905590518481527f8c5be1e5ebec7d5bd14f71427d1e84f3dd0314c0f7b2291e5b200ac8c7c3b92591015b60405180910390a3505050565b6065546001600160a01b031633146105565760405162461bcd60e51b815260206004820181905260248201527f4f776e61626c653a2063616c6c6572206973206e6f7420746865206f776e6572604482015260640161050c565b60006109728484610746565b905060001981146109da57818110156109cd5760405162461bcd60e51b815260206004820152601d60248201527f45524332303a20696e73756666696369656e7420616c6c6f77616e6365000000604482015260640161050c565b6109da84848484036107e7565b50505050565b6001600160a01b038316610a445760405162461bcd60e51b815260206004820152602560248201527f45524332303a207472616e736665722066726f6d20746865207a65726f206164604482015264647265737360d81b606482015260840161050c565b6001600160a01b038216610aa65760405162461bcd60e51b815260206004820152602360248201527f45524332303a207472616e7366657220746f20746865207a65726f206164647260448201526265737360e81b606482015260840161050c565b6001600160a01b03831660009081526033602052604090205481811015610b1e5760405162461bcd60e51b815260206004820152602660248201527f45524332303a207472616e7366657220616d6f756e7420657863656564732062604482015265616c616e636560d01b606482015260840161050c565b6001600160a01b0380851660008181526033602052604080822086860390559286168082529083902080548601905591517fddf252ad1be2c89b69c2b068fc378daa952ba7f163c4a11628f55a4df523b3ef90610b7e9086815260200190565b60405180910390a36109da565b6001600160a01b038216610be15760405162461bcd60e51b815260206004820152601f60248201527f45524332303a206d696e7420746f20746865207a65726f206164647265737300604482015260640161050c565b8060356000828254610bf39190611215565b90915550506001600160a01b0382166000818152603360209081526040808320805486019055518481527fddf252ad1be2c89b69c2b068fc378daa952ba7f163c4a11628f55a4df523b3ef910160405180910390a35050565b6001600160a01b038216610cac5760405162461bcd60e51b815260206004820152602160248201527f45524332303a206275726e2066726f6d20746865207a65726f206164647265736044820152607360f81b606482015260840161050c565b6001600160a01b03821660009081526033602052604090205481811015610d205760405162461bcd60e51b815260206004820152602260248201527f45524332303a206275726e20616d6f756e7420657863656564732062616c616e604482015261636560f01b606482015260840161050c565b6001600160a01b03831660008181526033602090815260408083208686039055603580548790039055518581529192917fddf252ad1be2c89b69c2b068fc378daa952ba7f163c4a11628f55a4df523b3ef91016108ff565b505050565b606580546001600160a01b038381166001600160a01b0319831681179093556040519116919082907f8be0079c531659141344cd1fd0a4f28419497f9722a3daafe3b4186f6b6457e090600090a35050565b600054610100900460ff16610df65760405162461bcd60e51b815260040161050c9061125f565b610556610e2f565b600054610100900460ff16610e255760405162461bcd60e51b815260040161050c9061125f565b6104a78282610e5f565b600054610100900460ff16610e565760405162461bcd60e51b815260040161050c9061125f565b61055633610d7d565b600054610100900460ff16610e865760405162461bcd60e51b815260040161050c9061125f565b8151610e99906036906020850190610ea9565b508051610d789060379060208401905b828054610eb5906111c4565b90600052602060002090601f016020900481019282610ed75760008555610f1d565b82601f10610ef057805160ff1916838001178555610f1d565b82800160010185558215610f1d579182015b82811115610f1d578251825591602001919060010190610f02565b50610f29929150610f2d565b5090565b5b80821115610f295760008155600101610f2e565b600060208083528351808285015260005b81811015610f6f57858101830151858201604001528201610f53565b81811115610f81576000604083870101525b50601f01601f1916929092016040019392505050565b80356001600160a01b0381168114610fae57600080fd5b919050565b60008060408385031215610fc657600080fd5b610fcf83610f97565b946020939093013593505050565b600060208284031215610fef57600080fd5b5035919050565b60008060006060848603121561100b57600080fd5b61101484610f97565b925061102260208501610f97565b9150604084013590509250925092565b60006020828403121561104457600080fd5b61104d82610f97565b9392505050565b634e487b7160e01b600052604160045260246000fd5b600082601f83011261107b57600080fd5b813567ffffffffffffffff8082111561109657611096611054565b604051601f8301601f19908116603f011681019082821181831017156110be576110be611054565b816040528381528660208588010111156110d757600080fd5b836020870160208301376000602085830101528094505050505092915050565b600080600080600060a0868803121561110f57600080fd5b853567ffffffffffffffff8082111561112757600080fd5b61113389838a0161106a565b9650602088013591508082111561114957600080fd5b61115589838a0161106a565b9550604088013591508082111561116b57600080fd5b506111788882890161106a565b9598949750949560608101359550608001359392505050565b600080604083850312156111a457600080fd5b6111ad83610f97565b91506111bb60208401610f97565b90509250929050565b600181811c908216806111d857607f821691505b602082108114156111f957634e487b7160e01b600052602260045260246000fd5b50919050565b634e487b7160e01b600052601160045260246000fd5b60008219821115611228576112286111ff565b500190565b6000600019821415611241576112416111ff565b5060010190565b60008282101561125a5761125a6111ff565b500390565b6020808252602b908201527f496e697469616c697a61626c653a20636f6e7472616374206973206e6f74206960408201526a6e697469616c697a696e6760a81b60608201526080019056fea26469706673582212204f932b83f20e10fa022030e9e350b3716ab741656d0c8ae532016ab3c123986664736f6c63430008090033",
    "linkReferences": {}
  },
  "methodIdentifiers": {
    "allowance(address,address)": "dd62ed3e",
    "approve(address,uint256)": "095ea7b3",
    "balanceOf(address)": "70a08231",
    "burn(uint256)": "42966c68",
    "claim()": "4e71d92d",
    "claimAmount()": "830953ab",
    "claimLimit()": "be610676",
    "claims(address)": "c6788bdd",
    "decimals()": "313ce567",
    "decreaseAllowance(address,uint256)": "a457c2d7",
    "iconURI()": "1f910971",
    "increaseAllowance(address,uint256)": "39509351",
    "initialize(string,string,string,uint256,uint256)": "80ddd09f",
    "mint(address,uint256)": "40c10f19",
    "name()": "06fdde03",
    "owner()": "8da5cb5b",
    "renounceOwnership()": "715018a6",
    "symbol()": "95d89b41",
    "totalSupply()": "18160ddd",
    "transfer(address,uint256)": "a9059cbb",
    "transferFrom(address,address,uint256)": "23b872dd",
    "transferOwnership(address)": "f2fde38b",
    "updateClaimLimit(uint256)": "22370ae7"
  },
  "id": 72
}