{
  "abi": [
    {
      "anonymous": false,
      "inputs": [
        {
          "indexed": true,
          "internalType": "address",
          "name": "owner",
          "type": "address"
        },
        {
          "indexed": true,
          "internalType": "address",
          "name": "approved",
          "type": "address"
        },
        {
          "indexed": true,
          "internalType": "uint256",
          "name": "tokenId",
          "type": "uint256"
        }
      ],
      "name": "Approval",
      "type": "event"
    },
    {
      "anonymous": false,
      "inputs": [
        {
          "indexed": true,
          "internalType": "address",
          "name": "owner",
          "type": "address"
        },
        {
          "indexed": true,
          "internalType": "address",
          "name": "operator",
          "type": "address"
        },
        {
          "indexed": false,
          "internalType": "bool",
          "name": "approved",
          "type": "bool"
        }
      ],
      "name": "ApprovalForAll",
      "type": "event"
    },
    {
      "anonymous": false,
      "inputs": [
        {
          "indexed": false,
          "internalType": "uint256",
          "name": "_fromTokenId",
          "type": "uint256"
        },
        {
          "indexed": false,
          "internalType": "uint256",
          "name": "_toTokenId",
          "type": "uint256"
        }
      ],
      "name": "BatchMetadataUpdate",
      "type": "event"
    },
    {
      "anonymous": false,
      "inputs": [
        {
          "indexed": false,
          "internalType": "uint8",
          "name": "version",
          "type": "uint8"
        }
      ],
      "name": "Initialized",
      "type": "event"
    },
    {
      "anonymous": false,
      "inputs": [
        {
          "indexed": false,
          "internalType": "uint256",
          "name": "_tokenId",
          "type": "uint256"
        }
      ],
      "name": "MetadataUpdate",
      "type": "event"
    },
    {
      "anonymous": false,
      "inputs": [
        {
          "indexed": false,
          "internalType": "address",
          "name": "reciever",
          "type": "address"
        },
        {
          "indexed": false,
          "internalType": "uint256",
          "name": "tokenId",
          "type": "uint256"
        },
        {
          "indexed": false,
          "internalType": "string",
          "name": "metadataURI",
          "type": "string"
        },
        {
          "indexed": false,
          "internalType": "string",
          "name": "name",
          "type": "string"
        }
      ],
      "name": "Minted",
      "type": "event"
    },
    {
      "anonymous": false,
      "inputs": [
        {
          "indexed": true,
          "internalType": "address",
          "name": "previousOwner",
          "type": "address"
        },
        {
          "indexed": true,
          "internalType": "address",
          "name": "newOwner",
          "type": "address"
        }
      ],
      "name": "OwnershipTransferred",
      "type": "event"
    },
    {
      "anonymous": false,
      "inputs": [
        {
          "indexed": true,
          "internalType": "address",
          "name": "from",
          "type": "address"
        },
        {
          "indexed": true,
          "internalType": "address",
          "name": "to",
          "type": "address"
        },
        {
          "indexed": true,
          "internalType": "uint256",
          "name": "tokenId",
          "type": "uint256"
        }
      ],
      "name": "Transfer",
      "type": "event"
    },
    {
      "inputs": [
        {
          "internalType": "address",
          "name": "to",
          "type": "address"
        },
        {
          "internalType": "uint256",
          "name": "tokenId",
          "type": "uint256"
        }
      ],
      "name": "approve",
      "outputs": [],
      "stateMutability": "nonpayable",
      "type": "function"
    },
    {
      "inputs": [
        {
          "internalType": "address",
          "name": "owner",
          "type": "address"
        }
      ],
      "name": "balanceOf",
      "outputs": [
        {
          "internalType": "uint256",
          "name": "",
          "type": "uint256"
        }
      ],
      "stateMutability": "view",
      "type": "function"
    },
    {
      "inputs": [
        {
          "internalType": "uint256",
          "name": "tokenId",
          "type": "uint256"
        }
      ],
      "name": "getApproved",
      "outputs": [
        {
          "internalType": "address",
          "name": "",
          "type": "address"
        }
      ],
      "stateMutability": "view",
      "type": "function"
    },
    {
      "inputs": [],
      "name": "gratieContract",
      "outputs": [
        {
          "internalType": "address",
          "name": "",
          "type": "address"
        }
      ],
      "stateMutability": "view",
      "type": "function"
    },
    {
      "inputs": [
        {
          "internalType": "string",
          "name": "_name",
          "type": "string"
        },
        {
          "internalType": "string",
          "name": "_symbol",
          "type": "string"
        }
      ],
      "name": "initialize",
      "outputs": [],
      "stateMutability": "nonpayable",
      "type": "function"
    },
    {
      "inputs": [
        {
          "internalType": "address",
          "name": "owner",
          "type": "address"
        },
        {
          "internalType": "address",
          "name": "operator",
          "type": "address"
        }
      ],
      "name": "isApprovedForAll",
      "outputs": [
        {
          "internalType": "bool",
          "name": "",
          "type": "bool"
        }
      ],
      "stateMutability": "view",
      "type": "function"
    },
    {
      "inputs": [
        {
          "internalType": "address",
          "name": "_receiver",
          "type": "address"
        },
        {
          "internalType": "uint256",
          "name": "_tokenId",
          "type": "uint256"
        },
        {
          "internalType": "string",
          "name": "_tokenURI",
          "type": "string"
        }
      ],
      "name": "mint",
      "outputs": [],
      "stateMutability": "nonpayable",
      "type": "function"
    },
    {
      "inputs": [
        {
          "internalType": "address[]",
          "name": "_receivers",
          "type": "address[]"
        },
        {
          "internalType": "uint256[]",
          "name": "_tokenIds",
          "type": "uint256[]"
        },
        {
          "internalType": "string[]",
          "name": "_tokenURIs",
          "type": "string[]"
        }
      ],
      "name": "mintBatch",
      "outputs": [],
      "stateMutability": "nonpayable",
      "type": "function"
    },
    {
      "inputs": [],
      "name": "name",
      "outputs": [
        {
          "internalType": "string",
          "name": "",
          "type": "string"
        }
      ],
      "stateMutability": "view",
      "type": "function"
    },
    {
      "inputs": [],
      "name": "owner",
      "outputs": [
        {
          "internalType": "address",
          "name": "",
          "type": "address"
        }
      ],
      "stateMutability": "view",
      "type": "function"
    },
    {
      "inputs": [
        {
          "internalType": "uint256",
          "name": "tokenId",
          "type": "uint256"
        }
      ],
      "name": "ownerOf",
      "outputs": [
        {
          "internalType": "address",
          "name": "",
          "type": "address"
        }
      ],
      "stateMutability": "view",
      "type": "function"
    },
    {
      "inputs": [],
      "name": "renounceOwnership",
      "outputs": [],
      "stateMutability": "nonpayable",
      "type": "function"
    },
    {
      "inputs": [
        {
          "internalType": "address",
          "name": "from",
          "type": "address"
        },
        {
          "internalType": "address",
          "name": "to",
          "type": "address"
        },
        {
          "internalType": "uint256",
          "name": "tokenId",
          "type": "uint256"
        }
      ],
      "name": "safeTransferFrom",
      "outputs": [],
      "stateMutability": "nonpayable",
      "type": "function"
    },
    {
      "inputs": [
        {
          "internalType": "address",
          "name": "from",
          "type": "address"
        },
        {
          "internalType": "address",
          "name": "to",
          "type": "address"
        },
        {
          "internalType": "uint256",
          "name": "tokenId",
          "type": "uint256"
        },
        {
          "internalType": "bytes",
          "name": "data",
          "type": "bytes"
        }
      ],
      "name": "safeTransferFrom",
      "outputs": [],
      "stateMutability": "nonpayable",
      "type": "function"
    },
    {
      "inputs": [
        {
          "internalType": "address",
          "name": "operator",
          "type": "address"
        },
        {
          "internalType": "bool",
          "name": "approved",
          "type": "bool"
        }
      ],
      "name": "setApprovalForAll",
      "outputs": [],
      "stateMutability": "nonpayable",
      "type": "function"
    },
    {
      "inputs": [
        {
          "internalType": "address",
          "name": "_gratieContract",
          "type": "address"
        }
      ],
      "name": "setGratieContract",
      "outputs": [],
      "stateMutability": "nonpayable",
      "type": "function"
    },
    {
      "inputs": [
        {
          "internalType": "bytes4",
          "name": "interfaceId",
          "type": "bytes4"
        }
      ],
      "name": "supportsInterface",
      "outputs": [
        {
          "internalType": "bool",
          "name": "",
          "type": "bool"
        }
      ],
      "stateMutability": "view",
      "type": "function"
    },
    {
      "inputs": [],
      "name": "symbol",
      "outputs": [
        {
          "internalType": "string",
          "name": "",
          "type": "string"
        }
      ],
      "stateMutability": "view",
      "type": "function"
    },
    {
      "inputs": [
        {
          "internalType": "uint256",
          "name": "tokenId",
          "type": "uint256"
        }
      ],
      "name": "tokenURI",
      "outputs": [
        {
          "internalType": "string",
          "name": "",
          "type": "string"
        }
      ],
      "stateMutability": "view",
      "type": "function"
    },
    {
      "inputs": [],
      "name": "totalSupply",
      "outputs": [
        {
          "internalType": "uint256",
          "name": "",
          "type": "uint256"
        }
      ],
      "stateMutability": "view",
      "type": "function"
    },
    {
      "inputs": [
        {
          "internalType": "address",
          "name": "from",
          "type": "address"
        },
        {
          "internalType": "address",
          "name": "to",
          "type": "address"
        },
        {
          "internalType": "uint256",
          "name": "tokenId",
          "type": "uint256"
        }
      ],
      "name": "transferFrom",
      "outputs": [],
      "stateMutability": "nonpayable",
      "type": "function"
    },
    {
      "inputs": [
        {
          "internalType": "address",
          "name": "newOwner",
          "type": "address"
        }
      ],
      "name": "transferOwnership",
      "outputs": [],
      "stateMutability": "nonpayable",
      "type": "function"
    }
  ],
  "bytecode": {
    "object": "0x608060405234801561001057600080fd5b5061204b806100206000396000f3fe608060405234801561001057600080fd5b50600436106101425760003560e01c806370a08231116100b8578063a22cb4651161007c578063a22cb46514610294578063b88d4fde146102a7578063c87b56dd146102ba578063d3fc9864146102cd578063e985e9c5146102e0578063f2fde38b1461031c57600080fd5b806370a082311461024d578063715018a6146102605780638da5cb5b1461026857806392315df71461027957806395d89b411461028c57600080fd5b806323b872dd1161010a57806323b872dd146101db5780633c12021d146101ee57806342842e0e146102015780634cd88b76146102145780636352211e1461022757806364ca18011461023a57600080fd5b806301ffc9a71461014757806306fdde031461016f578063081812fc14610184578063095ea7b3146101af57806318160ddd146101c4575b600080fd5b61015a610155366004611836565b61032f565b60405190151581526020015b60405180910390f35b61017761035a565b60405161016691906118ab565b6101976101923660046118be565b6103ec565b6040516001600160a01b039091168152602001610166565b6101c26101bd3660046118f3565b610413565b005b6101cd60fc5481565b604051908152602001610166565b6101c26101e936600461191d565b61052e565b6101c26101fc366004611959565b61055f565b6101c261020f36600461191d565b61060d565b6101c26102223660046119bd565b610628565b6101976102353660046118be565b610769565b60fb54610197906001600160a01b031681565b6101cd61025b366004611959565b6107c9565b6101c261084f565b60c9546001600160a01b0316610197565b6101c2610287366004611a6e565b610863565b610177610a09565b6101c26102a2366004611b08565b610a18565b6101c26102b5366004611bd0565b610a27565b6101776102c83660046118be565b610a5f565b6101c26102db366004611c4c565b610b70565b61015a6102ee366004611cb7565b6001600160a01b039182166000908152606a6020908152604080832093909416825291909152205460ff1690565b6101c261032a366004611959565b610bea565b60006001600160e01b03198216632483248360e11b1480610354575061035482610c63565b92915050565b60606065805461036990611cea565b80601f016020809104026020016040519081016040528092919081815260200182805461039590611cea565b80156103e25780601f106103b7576101008083540402835291602001916103e2565b820191906000526020600020905b8154815290600101906020018083116103c557829003601f168201915b5050505050905090565b60006103f782610cb3565b506000908152606960205260409020546001600160a01b031690565b600061041e82610769565b9050806001600160a01b0316836001600160a01b031614156104915760405162461bcd60e51b815260206004820152602160248201527f4552433732313a20617070726f76616c20746f2063757272656e74206f776e656044820152603960f91b60648201526084015b60405180910390fd5b336001600160a01b03821614806104ad57506104ad81336102ee565b61051f5760405162461bcd60e51b815260206004820152603d60248201527f4552433732313a20617070726f76652063616c6c6572206973206e6f7420746f60448201527f6b656e206f776e6572206f7220617070726f76656420666f7220616c6c0000006064820152608401610488565b6105298383610d12565b505050565b6105383382610d80565b6105545760405162461bcd60e51b815260040161048890611d25565b610529838383610dfe565b600054600290610100900460ff16158015610581575060005460ff8083169116105b61059d5760405162461bcd60e51b815260040161048890611d72565b6000805460fb80546001600160a01b0319166001600160a01b03861617905561ff001961010060ff851661ffff19909316831717169091556040519081527f7f26b83ff96e1f2b6a682f133852f6798a09c465da95921460cefb3847402498906020015b60405180910390a15050565b61052983838360405180602001604052806000815250610a27565b600054610100900460ff16158080156106485750600054600160ff909116105b806106625750303b158015610662575060005460ff166001145b61067e5760405162461bcd60e51b815260040161048890611d72565b6000805460ff1916600117905580156106a1576000805461ff0019166101001790555b6106a9610f62565b61071c85858080601f01602080910402602001604051908101604052809392919081815260200183838082843760009201919091525050604080516020601f89018190048102820181019092528781529250879150869081908401838280828437600092019190915250610f9192505050565b8015610762576000805461ff0019169055604051600181527f7f26b83ff96e1f2b6a682f133852f6798a09c465da95921460cefb38474024989060200160405180910390a15b5050505050565b6000818152606760205260408120546001600160a01b0316806103545760405162461bcd60e51b8152602060048201526018602482015277115490cdcc8c4e881a5b9d985b1a59081d1bdad95b88125160421b6044820152606401610488565b60006001600160a01b0382166108335760405162461bcd60e51b815260206004820152602960248201527f4552433732313a2061646472657373207a65726f206973206e6f7420612076616044820152683634b21037bbb732b960b91b6064820152608401610488565b506001600160a01b031660009081526068602052604090205490565b610857610fc2565b610861600061101c565b565b60fb546001600160a01b031633146108bd5760405162461bcd60e51b815260206004820152601d60248201527f4f6e6c792047726174696520436f6e747261637420616c6c6f776564210000006044820152606401610488565b84831480156108cb57508481145b6109105760405162461bcd60e51b8152602060048201526016602482015275496e76616c6964206172726179206c656e677468732160501b6044820152606401610488565b8383905060fc60008282546109259190611dd6565b90915550600090505b85811015610a005761097e87878381811061094b5761094b611dee565b90506020020160208101906109609190611959565b86868481811061097257610972611dee565b9050602002013561106e565b6109f885858381811061099357610993611dee565b905060200201358484848181106109ac576109ac611dee565b90506020028101906109be9190611e04565b8080601f01602080910402602001604051908101604052809392919081815260200183838082843760009201919091525061108892505050565b60010161092e565b50505050505050565b60606066805461036990611cea565b610a23338383611153565b5050565b610a313383610d80565b610a4d5760405162461bcd60e51b815260040161048890611d25565b610a5984848484611222565b50505050565b6060610a6a82610cb3565b60008281526097602052604081208054610a8390611cea565b80601f0160208091040260200160405190810160405280929190818152602001828054610aaf90611cea565b8015610afc5780601f10610ad157610100808354040283529160200191610afc565b820191906000526020600020905b815481529060010190602001808311610adf57829003601f168201915b505050505090506000610b1a60408051602081019091526000815290565b9050805160001415610b2d575092915050565b815115610b5f578082604051602001610b47929190611e4b565b60405160208183030381529060405292505050919050565b610b6884611255565b949350505050565b610b78610fc2565b60fc60008154610b8790611e7a565b90915550610b95838361106e565b610b9f8282611088565b7fe2406cfd356cfbe4e42d452bde96d27f48c423e5f02b5d78695893308399519d8360fc5483610bcd61035a565b604051610bdd9493929190611e95565b60405180910390a1505050565b610bf2610fc2565b6001600160a01b038116610c575760405162461bcd60e51b815260206004820152602660248201527f4f776e61626c653a206e6577206f776e657220697320746865207a65726f206160448201526564647265737360d01b6064820152608401610488565b610c608161101c565b50565b60006001600160e01b031982166380ac58cd60e01b1480610c9457506001600160e01b03198216635b5e139f60e01b145b8061035457506301ffc9a760e01b6001600160e01b0319831614610354565b6000818152606760205260409020546001600160a01b0316610c605760405162461bcd60e51b8152602060048201526018602482015277115490cdcc8c4e881a5b9d985b1a59081d1bdad95b88125160421b6044820152606401610488565b600081815260696020526040902080546001600160a01b0319166001600160a01b0384169081179091558190610d4782610769565b6001600160a01b03167f8c5be1e5ebec7d5bd14f71427d1e84f3dd0314c0f7b2291e5b200ac8c7c3b92560405160405180910390a45050565b600080610d8c83610769565b9050806001600160a01b0316846001600160a01b03161480610dd357506001600160a01b038082166000908152606a602090815260408083209388168352929052205460ff165b80610b685750836001600160a01b0316610dec846103ec565b6001600160a01b031614949350505050565b826001600160a01b0316610e1182610769565b6001600160a01b031614610e375760405162461bcd60e51b815260040161048890611ed9565b6001600160a01b038216610e995760405162461bcd60e51b8152602060048201526024808201527f4552433732313a207472616e7366657220746f20746865207a65726f206164646044820152637265737360e01b6064820152608401610488565b826001600160a01b0316610eac82610769565b6001600160a01b031614610ed25760405162461bcd60e51b815260040161048890611ed9565b600081815260696020908152604080832080546001600160a01b03199081169091556001600160a01b0387811680865260688552838620805460001901905590871680865283862080546001019055868652606790945282852080549092168417909155905184937fddf252ad1be2c89b69c2b068fc378daa952ba7f163c4a11628f55a4df523b3ef91a4505050565b600054610100900460ff16610f895760405162461bcd60e51b815260040161048890611f1e565b6108616112c9565b600054610100900460ff16610fb85760405162461bcd60e51b815260040161048890611f1e565b610a2382826112f9565b60c9546001600160a01b031633146108615760405162461bcd60e51b815260206004820181905260248201527f4f776e61626c653a2063616c6c6572206973206e6f7420746865206f776e65726044820152606401610488565b60c980546001600160a01b038381166001600160a01b0319831681179093556040519116919082907f8be0079c531659141344cd1fd0a4f28419497f9722a3daafe3b4186f6b6457e090600090a35050565b610a23828260405180602001604052806000815250611347565b6000828152606760205260409020546001600160a01b03166111035760405162461bcd60e51b815260206004820152602e60248201527f45524337323155524953746f726167653a2055524920736574206f66206e6f6e60448201526d32bc34b9ba32b73a103a37b5b2b760911b6064820152608401610488565b6000828152609760209081526040909120825161112292840190611787565b506040518281527ff8e1a15aba9398e019f0b49df1a4fde98ee17ae345cb5f6b5e2c27f5033e8ce790602001610601565b816001600160a01b0316836001600160a01b031614156111b55760405162461bcd60e51b815260206004820152601960248201527f4552433732313a20617070726f766520746f2063616c6c6572000000000000006044820152606401610488565b6001600160a01b038381166000818152606a6020908152604080832094871680845294825291829020805460ff191686151590811790915591519182527f17307eab39ab6107e8899845ad3d59bd9653f200f220920489ca2b5937696c31910160405180910390a3505050565b61122d848484610dfe565b6112398484848461137a565b610a595760405162461bcd60e51b815260040161048890611f69565b606061126082610cb3565b600061127760408051602081019091526000815290565b9050600081511161129757604051806020016040528060008152506112c2565b806112a184611487565b6040516020016112b2929190611e4b565b6040516020818303038152906040525b9392505050565b600054610100900460ff166112f05760405162461bcd60e51b815260040161048890611f1e565b6108613361101c565b600054610100900460ff166113205760405162461bcd60e51b815260040161048890611f1e565b8151611333906065906020850190611787565b508051610529906066906020840190611787565b6113518383611524565b61135e600084848461137a565b6105295760405162461bcd60e51b815260040161048890611f69565b60006001600160a01b0384163b1561147c57604051630a85bd0160e11b81526001600160a01b0385169063150b7a02906113be903390899088908890600401611fbb565b602060405180830381600087803b1580156113d857600080fd5b505af1925050508015611408575060408051601f3d908101601f1916820190925261140591810190611ff8565b60015b611462573d808015611436576040519150601f19603f3d011682016040523d82523d6000602084013e61143b565b606091505b50805161145a5760405162461bcd60e51b815260040161048890611f69565b805181602001fd5b6001600160e01b031916630a85bd0160e11b149050610b68565b506001949350505050565b60606000611494836116af565b600101905060008167ffffffffffffffff8111156114b4576114b4611b44565b6040519080825280601f01601f1916602001820160405280156114de576020820181803683370190505b5090508181016020015b600019016f181899199a1a9b1b9c1cb0b131b232b360811b600a86061a8153600a85049450846115175761151c565b6114e8565b509392505050565b6001600160a01b03821661157a5760405162461bcd60e51b815260206004820181905260248201527f4552433732313a206d696e7420746f20746865207a65726f20616464726573736044820152606401610488565b6000818152606760205260409020546001600160a01b0316156115df5760405162461bcd60e51b815260206004820152601c60248201527f4552433732313a20746f6b656e20616c7265616479206d696e746564000000006044820152606401610488565b6000818152606760205260409020546001600160a01b0316156116445760405162461bcd60e51b815260206004820152601c60248201527f4552433732313a20746f6b656e20616c7265616479206d696e746564000000006044820152606401610488565b6001600160a01b038216600081815260686020908152604080832080546001019055848352606790915280822080546001600160a01b0319168417905551839291907fddf252ad1be2c89b69c2b068fc378daa952ba7f163c4a11628f55a4df523b3ef908290a45050565b60008072184f03e93ff9f4daa797ed6e38ed64bf6a1f0160401b83106116ee5772184f03e93ff9f4daa797ed6e38ed64bf6a1f0160401b830492506040015b6d04ee2d6d415b85acef8100000000831061171a576d04ee2d6d415b85acef8100000000830492506020015b662386f26fc10000831061173857662386f26fc10000830492506010015b6305f5e1008310611750576305f5e100830492506008015b612710831061176457612710830492506004015b60648310611776576064830492506002015b600a83106103545760010192915050565b82805461179390611cea565b90600052602060002090601f0160209004810192826117b557600085556117fb565b82601f106117ce57805160ff19168380011785556117fb565b828001600101855582156117fb579182015b828111156117fb5782518255916020019190600101906117e0565b5061180792915061180b565b5090565b5b80821115611807576000815560010161180c565b6001600160e01b031981168114610c6057600080fd5b60006020828403121561184857600080fd5b81356112c281611820565b60005b8381101561186e578181015183820152602001611856565b83811115610a595750506000910152565b60008151808452611897816020860160208601611853565b601f01601f19169290920160200192915050565b6020815260006112c2602083018461187f565b6000602082840312156118d057600080fd5b5035919050565b80356001600160a01b03811681146118ee57600080fd5b919050565b6000806040838503121561190657600080fd5b61190f836118d7565b946020939093013593505050565b60008060006060848603121561193257600080fd5b61193b846118d7565b9250611949602085016118d7565b9150604084013590509250925092565b60006020828403121561196b57600080fd5b6112c2826118d7565b60008083601f84011261198657600080fd5b50813567ffffffffffffffff81111561199e57600080fd5b6020830191508360208285010111156119b657600080fd5b9250929050565b600080600080604085870312156119d357600080fd5b843567ffffffffffffffff808211156119eb57600080fd5b6119f788838901611974565b90965094506020870135915080821115611a1057600080fd5b50611a1d87828801611974565b95989497509550505050565b60008083601f840112611a3b57600080fd5b50813567ffffffffffffffff811115611a5357600080fd5b6020830191508360208260051b85010111156119b657600080fd5b60008060008060008060608789031215611a8757600080fd5b863567ffffffffffffffff80821115611a9f57600080fd5b611aab8a838b01611a29565b90985096506020890135915080821115611ac457600080fd5b611ad08a838b01611a29565b90965094506040890135915080821115611ae957600080fd5b50611af689828a01611a29565b979a9699509497509295939492505050565b60008060408385031215611b1b57600080fd5b611b24836118d7565b915060208301358015158114611b3957600080fd5b809150509250929050565b634e487b7160e01b600052604160045260246000fd5b600067ffffffffffffffff80841115611b7557611b75611b44565b604051601f8501601f19908116603f01168101908282118183101715611b9d57611b9d611b44565b81604052809350858152868686011115611bb657600080fd5b858560208301376000602087830101525050509392505050565b60008060008060808587031215611be657600080fd5b611bef856118d7565b9350611bfd602086016118d7565b925060408501359150606085013567ffffffffffffffff811115611c2057600080fd5b8501601f81018713611c3157600080fd5b611c4087823560208401611b5a565b91505092959194509250565b600080600060608486031215611c6157600080fd5b611c6a846118d7565b925060208401359150604084013567ffffffffffffffff811115611c8d57600080fd5b8401601f81018613611c9e57600080fd5b611cad86823560208401611b5a565b9150509250925092565b60008060408385031215611cca57600080fd5b611cd3836118d7565b9150611ce1602084016118d7565b90509250929050565b600181811c90821680611cfe57607f821691505b60208210811415611d1f57634e487b7160e01b600052602260045260246000fd5b50919050565b6020808252602d908201527f4552433732313a2063616c6c6572206973206e6f7420746f6b656e206f776e6560408201526c1c881bdc88185c1c1c9bdd9959609a1b606082015260800190565b6020808252602e908201527f496e697469616c697a61626c653a20636f6e747261637420697320616c72656160408201526d191e481a5b9a5d1a585b1a5e995960921b606082015260800190565b634e487b7160e01b600052601160045260246000fd5b60008219821115611de957611de9611dc0565b500190565b634e487b7160e01b600052603260045260246000fd5b6000808335601e19843603018112611e1b57600080fd5b83018035915067ffffffffffffffff821115611e3657600080fd5b6020019150368190038213156119b657600080fd5b60008351611e5d818460208801611853565b835190830190611e71818360208801611853565b01949350505050565b6000600019821415611e8e57611e8e611dc0565b5060010190565b60018060a01b0385168152836020820152608060408201526000611ebc608083018561187f565b8281036060840152611ece818561187f565b979650505050505050565b60208082526025908201527f4552433732313a207472616e736665722066726f6d20696e636f72726563742060408201526437bbb732b960d91b606082015260800190565b6020808252602b908201527f496e697469616c697a61626c653a20636f6e7472616374206973206e6f74206960408201526a6e697469616c697a696e6760a81b606082015260800190565b60208082526032908201527f4552433732313a207472616e7366657220746f206e6f6e20455243373231526560408201527131b2b4bb32b91034b6b83632b6b2b73a32b960711b606082015260800190565b6001600160a01b0385811682528416602082015260408101839052608060608201819052600090611fee9083018461187f565b9695505050505050565b60006020828403121561200a57600080fd5b81516112c28161182056fea2646970667358221220fc9067824e56d1f8494006aada6560699c34777450f444d7b4cd69960b2f732464736f6c63430008090033",
    "linkReferences": {}
  },
  "methodIdentifiers": {
    "approve(address,uint256)": "095ea7b3",
    "balanceOf(address)": "70a08231",
    "getApproved(uint256)": "081812fc",
    "gratieContract()": "64ca1801",
    "initialize(string,string)": "4cd88b76",
    "isApprovedForAll(address,address)": "e985e9c5",
    "mint(address,uint256,string)": "d3fc9864",
    "mintBatch(address[],uint256[],string[])": "92315df7",
    "name()": "06fdde03",
    "owner()": "8da5cb5b",
    "ownerOf(uint256)": "6352211e",
    "renounceOwnership()": "715018a6",
    "safeTransferFrom(address,address,uint256)": "42842e0e",
    "safeTransferFrom(address,address,uint256,bytes)": "b88d4fde",
    "setApprovalForAll(address,bool)": "a22cb465",
    "setGratieContract(address)": "3c12021d",
    "supportsInterface(bytes4)": "01ffc9a7",
    "symbol()": "95d89b41",
    "tokenURI(uint256)": "c87b56dd",
    "totalSupply()": "18160ddd",
    "transferFrom(address,address,uint256)": "23b872dd",
    "transferOwnership(address)": "f2fde38b"
  },
  "id": 70
}