{
  "abi": [
    {
      "inputs": [
        {
          "internalType": "address",
          "name": "initialOwner",
          "type": "address"
        }
      ],
      "stateMutability": "nonpayable",
      "type": "constructor"
    },
    {
      "anonymous": false,
      "inputs": [
        {
          "indexed": true,
          "internalType": "address",
          "name": "previousOwner",
          "type": "address"
        },
        {
          "indexed": true,
          "internalType": "address",
          "name": "newOwner",
          "type": "address"
        }
      ],
      "name": "OwnershipTransferred",
      "type": "event"
    },
    {
      "inputs": [
        {
          "internalType": "contract ITransparentUpgradeableProxy",
          "name": "proxy",
          "type": "address"
        },
        {
          "internalType": "address",
          "name": "newAdmin",
          "type": "address"
        }
      ],
      "name": "changeProxyAdmin",
      "outputs": [],
      "stateMutability": "nonpayable",
      "type": "function"
    },
    {
      "inputs": [],
      "name": "owner",
      "outputs": [
        {
          "internalType": "address",
          "name": "",
          "type": "address"
        }
      ],
      "stateMutability": "view",
      "type": "function"
    },
    {
      "inputs": [],
      "name": "renounceOwnership",
      "outputs": [],
      "stateMutability": "nonpayable",
      "type": "function"
    },
    {
      "inputs": [
        {
          "internalType": "address",
          "name": "newOwner",
          "type": "address"
        }
      ],
      "name": "transferOwnership",
      "outputs": [],
      "stateMutability": "nonpayable",
      "type": "function"
    },
    {
      "inputs": [
        {
          "internalType": "contract ITransparentUpgradeableProxy",
          "name": "proxy",
          "type": "address"
        },
        {
          "internalType": "address",
          "name": "implementation",
          "type": "address"
        }
      ],
      "name": "upgrade",
      "outputs": [],
      "stateMutability": "nonpayable",
      "type": "function"
    },
    {
      "inputs": [
        {
          "internalType": "contract ITransparentUpgradeableProxy",
          "name": "proxy",
          "type": "address"
        },
        {
          "internalType": "address",
          "name": "implementation",
          "type": "address"
        },
        {
          "internalType": "bytes",
          "name": "data",
          "type": "bytes"
        }
      ],
      "name": "upgradeAndCall",
      "outputs": [],
      "stateMutability": "payable",
      "type": "function"
    }
  ],
  "bytecode": {
    "object": "0x608060405234801561001057600080fd5b5060405161061f38038061061f83398101604081905261002f9161008e565b6100383361003e565b506100be565b600080546001600160a01b038381166001600160a01b0319831681178455604051919092169283917f8be0079c531659141344cd1fd0a4f28419497f9722a3daafe3b4186f6b6457e09190a35050565b6000602082840312156100a057600080fd5b81516001600160a01b03811681146100b757600080fd5b9392505050565b610552806100cd6000396000f3fe6080604052600436106100555760003560e01c8063715018a61461005a5780637eff275e146100715780638da5cb5b146100915780639623609d146100bd57806399a88ec4146100d0578063f2fde38b146100f0575b600080fd5b34801561006657600080fd5b5061006f610110565b005b34801561007d57600080fd5b5061006f61008c36600461036e565b610124565b34801561009d57600080fd5b50600054604080516001600160a01b039092168252519081900360200190f35b61006f6100cb3660046103bd565b61018c565b3480156100dc57600080fd5b5061006f6100eb36600461036e565b6101fb565b3480156100fc57600080fd5b5061006f61010b366004610493565b610231565b6101186102af565b6101226000610309565b565b61012c6102af565b6040516308f2839760e41b81526001600160a01b038281166004830152831690638f283970906024015b600060405180830381600087803b15801561017057600080fd5b505af1158015610184573d6000803e3d6000fd5b505050505050565b6101946102af565b60405163278f794360e11b81526001600160a01b03841690634f1ef2869034906101c490869086906004016104b7565b6000604051808303818588803b1580156101dd57600080fd5b505af11580156101f1573d6000803e3d6000fd5b5050505050505050565b6102036102af565b604051631b2ce7f360e11b81526001600160a01b038281166004830152831690633659cfe690602401610156565b6102396102af565b6001600160a01b0381166102a35760405162461bcd60e51b815260206004820152602660248201527f4f776e61626c653a206e6577206f776e657220697320746865207a65726f206160448201526564647265737360d01b60648201526084015b60405180910390fd5b6102ac81610309565b50565b6000546001600160a01b031633146101225760405162461bcd60e51b815260206004820181905260248201527f4f776e61626c653a2063616c6c6572206973206e6f7420746865206f776e6572604482015260640161029a565b600080546001600160a01b038381166001600160a01b0319831681178455604051919092169283917f8be0079c531659141344cd1fd0a4f28419497f9722a3daafe3b4186f6b6457e09190a35050565b6001600160a01b03811681146102ac57600080fd5b6000806040838503121561038157600080fd5b823561038c81610359565b9150602083013561039c81610359565b809150509250929050565b634e487b7160e01b600052604160045260246000fd5b6000806000606084860312156103d257600080fd5b83356103dd81610359565b925060208401356103ed81610359565b9150604084013567ffffffffffffffff8082111561040a57600080fd5b818601915086601f83011261041e57600080fd5b813581811115610430576104306103a7565b604051601f8201601f19908116603f01168101908382118183101715610458576104586103a7565b8160405282815289602084870101111561047157600080fd5b8260208601602083013760006020848301015280955050505050509250925092565b6000602082840312156104a557600080fd5b81356104b081610359565b9392505050565b60018060a01b038316815260006020604081840152835180604085015260005b818110156104f3578581018301518582016060015282016104d7565b81811115610505576000606083870101525b50601f01601f19169290920160600194935050505056fea264697066735822122069f87b87a4cc63ce702dd8d8a46b8120103d78c43d94f8b3f787582d8d0ea65664736f6c63430008090033",
    "linkReferences": {}
  },
  "methodIdentifiers": {
    "changeProxyAdmin(address,address)": "7eff275e",
    "owner()": "8da5cb5b",
    "renounceOwnership()": "715018a6",
    "transferOwnership(address)": "f2fde38b",
    "upgrade(address,address)": "99a88ec4",
    "upgradeAndCall(address,address,bytes)": "9623609d"
  },
  "id": 73
}