{
  "abi": [
    {
      "anonymous": false,
      "inputs": [
        {
          "indexed": true,
          "internalType": "address",
          "name": "account",
          "type": "address"
        },
        {
          "indexed": true,
          "internalType": "address",
          "name": "operator",
          "type": "address"
        },
        {
          "indexed": false,
          "internalType": "bool",
          "name": "approved",
          "type": "bool"
        }
      ],
      "name": "ApprovalForAll",
      "type": "event"
    },
    {
      "anonymous": false,
      "inputs": [
        {
          "indexed": false,
          "internalType": "uint8",
          "name": "version",
          "type": "uint8"
        }
      ],
      "name": "Initialized",
      "type": "event"
    },
    {
      "anonymous": false,
      "inputs": [
        {
          "indexed": true,
          "internalType": "address",
          "name": "previousOwner",
          "type": "address"
        },
        {
          "indexed": true,
          "internalType": "address",
          "name": "newOwner",
          "type": "address"
        }
      ],
      "name": "OwnershipTransferred",
      "type": "event"
    },
    {
      "anonymous": false,
      "inputs": [
        {
          "indexed": true,
          "internalType": "address",
          "name": "operator",
          "type": "address"
        },
        {
          "indexed": true,
          "internalType": "address",
          "name": "from",
          "type": "address"
        },
        {
          "indexed": true,
          "internalType": "address",
          "name": "to",
          "type": "address"
        },
        {
          "indexed": false,
          "internalType": "uint256[]",
          "name": "ids",
          "type": "uint256[]"
        },
        {
          "indexed": false,
          "internalType": "uint256[]",
          "name": "values",
          "type": "uint256[]"
        }
      ],
      "name": "TransferBatch",
      "type": "event"
    },
    {
      "anonymous": false,
      "inputs": [
        {
          "indexed": true,
          "internalType": "address",
          "name": "operator",
          "type": "address"
        },
        {
          "indexed": true,
          "internalType": "address",
          "name": "from",
          "type": "address"
        },
        {
          "indexed": true,
          "internalType": "address",
          "name": "to",
          "type": "address"
        },
        {
          "indexed": false,
          "internalType": "uint256",
          "name": "id",
          "type": "uint256"
        },
        {
          "indexed": false,
          "internalType": "uint256",
          "name": "value",
          "type": "uint256"
        }
      ],
      "name": "TransferSingle",
      "type": "event"
    },
    {
      "anonymous": false,
      "inputs": [
        {
          "indexed": false,
          "internalType": "string",
          "name": "value",
          "type": "string"
        },
        {
          "indexed": true,
          "internalType": "uint256",
          "name": "id",
          "type": "uint256"
        }
      ],
      "name": "URI",
      "type": "event"
    },
    {
      "inputs": [
        {
          "internalType": "address",
          "name": "account",
          "type": "address"
        },
        {
          "internalType": "uint256",
          "name": "id",
          "type": "uint256"
        }
      ],
      "name": "balanceOf",
      "outputs": [
        {
          "internalType": "uint256",
          "name": "",
          "type": "uint256"
        }
      ],
      "stateMutability": "view",
      "type": "function"
    },
    {
      "inputs": [
        {
          "internalType": "address[]",
          "name": "accounts",
          "type": "address[]"
        },
        {
          "internalType": "uint256[]",
          "name": "ids",
          "type": "uint256[]"
        }
      ],
      "name": "balanceOfBatch",
      "outputs": [
        {
          "internalType": "uint256[]",
          "name": "",
          "type": "uint256[]"
        }
      ],
      "stateMutability": "view",
      "type": "function"
    },
    {
      "inputs": [
        {
          "internalType": "address",
          "name": "_from",
          "type": "address"
        },
        {
          "internalType": "uint256",
          "name": "_id",
          "type": "uint256"
        },
        {
          "internalType": "uint256",
          "name": "_amount",
          "type": "uint256"
        }
      ],
      "name": "burn",
      "outputs": [],
      "stateMutability": "nonpayable",
      "type": "function"
    },
    {
      "inputs": [
        {
          "internalType": "address",
          "name": "_from",
          "type": "address"
        },
        {
          "internalType": "uint256[]",
          "name": "_ids",
          "type": "uint256[]"
        },
        {
          "internalType": "uint256[]",
          "name": "_amounts",
          "type": "uint256[]"
        }
      ],
      "name": "burnBatch",
      "outputs": [],
      "stateMutability": "nonpayable",
      "type": "function"
    },
    {
      "inputs": [
        {
          "internalType": "uint256",
          "name": "id",
          "type": "uint256"
        }
      ],
      "name": "exists",
      "outputs": [
        {
          "internalType": "bool",
          "name": "",
          "type": "bool"
        }
      ],
      "stateMutability": "view",
      "type": "function"
    },
    {
      "inputs": [],
      "name": "gratieContract",
      "outputs": [
        {
          "internalType": "address",
          "name": "",
          "type": "address"
        }
      ],
      "stateMutability": "view",
      "type": "function"
    },
    {
      "inputs": [
        {
          "internalType": "string",
          "name": "_name",
          "type": "string"
        },
        {
          "internalType": "string",
          "name": "_symbol",
          "type": "string"
        }
      ],
      "name": "initialize",
      "outputs": [],
      "stateMutability": "nonpayable",
      "type": "function"
    },
    {
      "inputs": [
        {
          "internalType": "address",
          "name": "account",
          "type": "address"
        },
        {
          "internalType": "address",
          "name": "operator",
          "type": "address"
        }
      ],
      "name": "isApprovedForAll",
      "outputs": [
        {
          "internalType": "bool",
          "name": "",
          "type": "bool"
        }
      ],
      "stateMutability": "view",
      "type": "function"
    },
    {
      "inputs": [
        {
          "internalType": "address",
          "name": "_receiver",
          "type": "address"
        },
        {
          "internalType": "uint256",
          "name": "_tokenId",
          "type": "uint256"
        },
        {
          "internalType": "uint256",
          "name": "_amount",
          "type": "uint256"
        }
      ],
      "name": "mint",
      "outputs": [],
      "stateMutability": "nonpayable",
      "type": "function"
    },
    {
      "inputs": [
        {
          "internalType": "address[]",
          "name": "_receivers",
          "type": "address[]"
        },
        {
          "internalType": "uint256[]",
          "name": "_tokenIds",
          "type": "uint256[]"
        },
        {
          "internalType": "uint256[]",
          "name": "_amounts",
          "type": "uint256[]"
        }
      ],
      "name": "mintBatch",
      "outputs": [],
      "stateMutability": "nonpayable",
      "type": "function"
    },
    {
      "inputs": [],
      "name": "name",
      "outputs": [
        {
          "internalType": "string",
          "name": "",
          "type": "string"
        }
      ],
      "stateMutability": "view",
      "type": "function"
    },
    {
      "inputs": [],
      "name": "owner",
      "outputs": [
        {
          "internalType": "address",
          "name": "",
          "type": "address"
        }
      ],
      "stateMutability": "view",
      "type": "function"
    },
    {
      "inputs": [],
      "name": "renounceOwnership",
      "outputs": [],
      "stateMutability": "nonpayable",
      "type": "function"
    },
    {
      "inputs": [
        {
          "internalType": "address",
          "name": "from",
          "type": "address"
        },
        {
          "internalType": "address",
          "name": "to",
          "type": "address"
        },
        {
          "internalType": "uint256[]",
          "name": "ids",
          "type": "uint256[]"
        },
        {
          "internalType": "uint256[]",
          "name": "amounts",
          "type": "uint256[]"
        },
        {
          "internalType": "bytes",
          "name": "data",
          "type": "bytes"
        }
      ],
      "name": "safeBatchTransferFrom",
      "outputs": [],
      "stateMutability": "nonpayable",
      "type": "function"
    },
    {
      "inputs": [
        {
          "internalType": "address",
          "name": "from",
          "type": "address"
        },
        {
          "internalType": "address",
          "name": "to",
          "type": "address"
        },
        {
          "internalType": "uint256",
          "name": "id",
          "type": "uint256"
        },
        {
          "internalType": "uint256",
          "name": "amount",
          "type": "uint256"
        },
        {
          "internalType": "bytes",
          "name": "data",
          "type": "bytes"
        }
      ],
      "name": "safeTransferFrom",
      "outputs": [],
      "stateMutability": "nonpayable",
      "type": "function"
    },
    {
      "inputs": [
        {
          "internalType": "address",
          "name": "operator",
          "type": "address"
        },
        {
          "internalType": "bool",
          "name": "approved",
          "type": "bool"
        }
      ],
      "name": "setApprovalForAll",
      "outputs": [],
      "stateMutability": "nonpayable",
      "type": "function"
    },
    {
      "inputs": [
        {
          "internalType": "address",
          "name": "_gratieContract",
          "type": "address"
        }
      ],
      "name": "setGratieContract",
      "outputs": [],
      "stateMutability": "nonpayable",
      "type": "function"
    },
    {
      "inputs": [
        {
          "internalType": "uint256",
          "name": "_tokenId",
          "type": "uint256"
        },
        {
          "internalType": "string",
          "name": "_tokenURI",
          "type": "string"
        }
      ],
      "name": "setTokenURI",
      "outputs": [],
      "stateMutability": "nonpayable",
      "type": "function"
    },
    {
      "inputs": [
        {
          "internalType": "bytes4",
          "name": "interfaceId",
          "type": "bytes4"
        }
      ],
      "name": "supportsInterface",
      "outputs": [
        {
          "internalType": "bool",
          "name": "",
          "type": "bool"
        }
      ],
      "stateMutability": "view",
      "type": "function"
    },
    {
      "inputs": [],
      "name": "symbol",
      "outputs": [
        {
          "internalType": "string",
          "name": "",
          "type": "string"
        }
      ],
      "stateMutability": "view",
      "type": "function"
    },
    {
      "inputs": [
        {
          "internalType": "uint256",
          "name": "id",
          "type": "uint256"
        }
      ],
      "name": "totalSupply",
      "outputs": [
        {
          "internalType": "uint256",
          "name": "",
          "type": "uint256"
        }
      ],
      "stateMutability": "view",
      "type": "function"
    },
    {
      "inputs": [
        {
          "internalType": "address",
          "name": "newOwner",
          "type": "address"
        }
      ],
      "name": "transferOwnership",
      "outputs": [],
      "stateMutability": "nonpayable",
      "type": "function"
    },
    {
      "inputs": [
        {
          "internalType": "uint256",
          "name": "_tokenId",
          "type": "uint256"
        }
      ],
      "name": "uri",
      "outputs": [
        {
          "internalType": "string",
          "name": "",
          "type": "string"
        }
      ],
      "stateMutability": "view",
      "type": "function"
    }
  ],
  "bytecode": {
    "object": "0x608060405234801561001057600080fd5b50612656806100206000396000f3fe608060405234801561001057600080fd5b506004361061014c5760003560e01c806357128683116100c3578063a22cb4651161007c578063a22cb465146102d8578063bd85b039146102eb578063e985e9c51461030b578063f242432a14610347578063f2fde38b1461035a578063f5298aca1461036d57600080fd5b8063571286831461026557806364ca1801146102785780636b20c454146102a4578063715018a6146102b75780638da5cb5b146102bf57806395d89b41146102d057600080fd5b8063162094c411610115578063162094c4146101d75780632eb2c2d6146101ea5780633c12021d146101fd5780634cd88b76146102105780634e1273f4146102235780634f558e791461024357600080fd5b8062fdd58e1461015157806301ffc9a71461017757806306fdde031461019a5780630e89341c146101af578063156e29f6146101c2575b600080fd5b61016461015f3660046119b4565b610380565b6040519081526020015b60405180910390f35b61018a6101853660046119f4565b610418565b604051901515815260200161016e565b6101a261046a565b60405161016e9190611a69565b6101a26101bd366004611a7c565b6104f9565b6101d56101d0366004611a95565b610504565b005b6101d56101e5366004611b7d565b61052c565b6101d56101f8366004611c57565b610542565b6101d561020b366004611d00565b61055e565b6101d561021e366004611d1b565b61060c565b610236610231366004611d74565b610701565b60405161016e9190611e6f565b61018a610251366004611a7c565b600090815260976020526040902054151590565b6101d5610273366004611ecd565b61082a565b61012f5461028c906001600160a01b031681565b6040516001600160a01b03909116815260200161016e565b6101d56102b2366004611f66565b610907565b6101d561091a565b60fb546001600160a01b031661028c565b6101a261092e565b6101d56102e6366004611fd9565b61093c565b6101646102f9366004611a7c565b60009081526097602052604090205490565b61018a610319366004612015565b6001600160a01b03918216600090815260666020908152604080832093909416825291909152205460ff1690565b6101d5610355366004612048565b610947565b6101d5610368366004611d00565b61095c565b6101d561037b366004611a95565b6109d5565b60006001600160a01b0383166103f05760405162461bcd60e51b815260206004820152602a60248201527f455243313135353a2061646472657373207a65726f206973206e6f742061207660448201526930b634b21037bbb732b960b11b60648201526084015b60405180910390fd5b5060009081526065602090815260408083206001600160a01b03949094168352929052205490565b60006001600160e01b03198216636cdb3d1360e11b148061044957506001600160e01b031982166303a24d0760e21b145b8061046457506301ffc9a760e01b6001600160e01b03198316145b92915050565b61012d8054610478906120ac565b80601f01602080910402602001604051908101604052809291908181526020018280546104a4906120ac565b80156104f15780601f106104c6576101008083540402835291602001916104f1565b820191906000526020600020905b8154815290600101906020018083116104d457829003601f168201915b505050505081565b6060610464826109e8565b61050c610ac8565b61052783838360405180602001604052806000815250610b22565b505050565b610534610ac8565b61053e8282610c3e565b5050565b61054a610ac8565b6105578585858585610ca2565b5050505050565b600054600290610100900460ff16158015610580575060005460ff8083169116105b61059c5760405162461bcd60e51b81526004016103e7906120e7565b6000805461012f80546001600160a01b0319166001600160a01b03861617905561ff001961010060ff851661ffff19909316831717169091556040519081527f7f26b83ff96e1f2b6a682f133852f6798a09c465da95921460cefb38474024989060200160405180910390a15050565b600054610100900460ff161580801561062c5750600054600160ff909116105b806106465750303b158015610646575060005460ff166001145b6106625760405162461bcd60e51b81526004016103e7906120e7565b6000805460ff191660011790558015610685576000805461ff0019166101001790555b61068d610ce7565b82516106a19061012d9060208601906118ff565b5081516106b69061012e9060208501906118ff565b508015610527576000805461ff0019169055604051600181527f7f26b83ff96e1f2b6a682f133852f6798a09c465da95921460cefb38474024989060200160405180910390a1505050565b606081518351146107665760405162461bcd60e51b815260206004820152602960248201527f455243313135353a206163636f756e747320616e6420696473206c656e677468604482015268040dad2e6dac2e8c6d60bb1b60648201526084016103e7565b600083516001600160401b0381111561078157610781611ac8565b6040519080825280602002602001820160405280156107aa578160200160208202803683370190505b50905060005b8451811015610822576107f58582815181106107ce576107ce612135565b60200260200101518583815181106107e8576107e8612135565b6020026020010151610380565b82828151811061080757610807612135565b602090810291909101015261081b81612161565b90506107b0565b509392505050565b610832610ac8565b84831461087a5760405162461bcd60e51b8152602060048201526016602482015275496e76616c6964206172726179206c656e677468732160501b60448201526064016103e7565b60005b858110156108fe576108f687878381811061089a5761089a612135565b90506020020160208101906108af9190611d00565b8686848181106108c1576108c1612135565b905060200201358585858181106108da576108da612135565b9050602002013560405180602001604052806000815250610b22565b60010161087d565b50505050505050565b61090f610ac8565b610527838383610d16565b610922610ac8565b61092c6000610eb7565b565b61012e8054610478906120ac565b61053e338383610f09565b61094f610ac8565b6105578585858585610fea565b610964610ac8565b6001600160a01b0381166109c95760405162461bcd60e51b815260206004820152602660248201527f4f776e61626c653a206e6577206f776e657220697320746865207a65726f206160448201526564647265737360d01b60648201526084016103e7565b6109d281610eb7565b50565b6109dd610ac8565b61052783838361102f565b600081815260ca6020526040812080546060929190610a06906120ac565b80601f0160208091040260200160405190810160405280929190818152602001828054610a32906120ac565b8015610a7f5780601f10610a5457610100808354040283529160200191610a7f565b820191906000526020600020905b815481529060010190602001808311610a6257829003601f168201915b505050505090506000815111610a9d57610a988361114b565b610ac1565b60c981604051602001610ab1929190612198565b6040516020818303038152906040525b9392505050565b60fb546001600160a01b0316331461092c5760405162461bcd60e51b815260206004820181905260248201527f4f776e61626c653a2063616c6c6572206973206e6f7420746865206f776e657260448201526064016103e7565b6001600160a01b038416610b825760405162461bcd60e51b815260206004820152602160248201527f455243313135353a206d696e7420746f20746865207a65726f206164647265736044820152607360f81b60648201526084016103e7565b336000610b8e856111df565b90506000610b9b856111df565b9050610bac8360008985858961122a565b60008681526065602090815260408083206001600160a01b038b16845290915281208054879290610bde90849061223f565b909155505060408051878152602081018790526001600160a01b03808a1692600092918716917fc3d58168c5ae7397731d063d5bbf3d657854427343f4c083240f7aacaa2d0f62910160405180910390a46108fe83600089898989611240565b600082815260ca602090815260409091208251610c5d928401906118ff565b50817f6bb7ff708619ba0610cba295a58592e0451dee2622938c8755667688daf3529b610c89846104f9565b604051610c969190611a69565b60405180910390a25050565b6001600160a01b038516331480610cbe5750610cbe8533610319565b610cda5760405162461bcd60e51b81526004016103e790612257565b61055785858585856113ab565b600054610100900460ff16610d0e5760405162461bcd60e51b81526004016103e7906122a5565b61092c611550565b6001600160a01b038316610d3c5760405162461bcd60e51b81526004016103e7906122f0565b8051825114610d5d5760405162461bcd60e51b81526004016103e790612333565b6000339050610d808185600086866040518060200160405280600081525061122a565b60005b8351811015610e48576000848281518110610da057610da0612135565b602002602001015190506000848381518110610dbe57610dbe612135565b60209081029190910181015160008481526065835260408082206001600160a01b038c168352909352919091205490915081811015610e0f5760405162461bcd60e51b81526004016103e79061237b565b60009283526065602090815260408085206001600160a01b038b1686529091529092209103905580610e4081612161565b915050610d83565b5060006001600160a01b0316846001600160a01b0316826001600160a01b03167f4a39dc06d4c0dbc64b70af90fd698a233a518aa5d07e595d983b8c0526c8f7fb8686604051610e999291906123bf565b60405180910390a46040805160208101909152600090525b50505050565b60fb80546001600160a01b038381166001600160a01b0319831681179093556040519116919082907f8be0079c531659141344cd1fd0a4f28419497f9722a3daafe3b4186f6b6457e090600090a35050565b816001600160a01b0316836001600160a01b03161415610f7d5760405162461bcd60e51b815260206004820152602960248201527f455243313135353a2073657474696e6720617070726f76616c20737461747573604482015268103337b91039b2b63360b91b60648201526084016103e7565b6001600160a01b03838116600081815260666020908152604080832094871680845294825291829020805460ff191686151590811790915591519182527f17307eab39ab6107e8899845ad3d59bd9653f200f220920489ca2b5937696c31910160405180910390a3505050565b6001600160a01b03851633148061100657506110068533610319565b6110225760405162461bcd60e51b81526004016103e790612257565b6105578585858585611580565b6001600160a01b0383166110555760405162461bcd60e51b81526004016103e7906122f0565b336000611061846111df565b9050600061106e846111df565b905061108e8387600085856040518060200160405280600081525061122a565b60008581526065602090815260408083206001600160a01b038a168452909152902054848110156110d15760405162461bcd60e51b81526004016103e79061237b565b60008681526065602090815260408083206001600160a01b038b81168086529184528285208a8703905582518b81529384018a90529092908816917fc3d58168c5ae7397731d063d5bbf3d657854427343f4c083240f7aacaa2d0f62910160405180910390a46040805160208101909152600090526108fe565b60606067805461115a906120ac565b80601f0160208091040260200160405190810160405280929190818152602001828054611186906120ac565b80156111d35780601f106111a8576101008083540402835291602001916111d3565b820191906000526020600020905b8154815290600101906020018083116111b657829003601f168201915b50505050509050919050565b6040805160018082528183019092526060916000919060208083019080368337019050509050828160008151811061121957611219612135565b602090810291909101015292915050565b6112388686868686866116bc565b505050505050565b6001600160a01b0384163b156112385760405163f23a6e6160e01b81526001600160a01b0385169063f23a6e619061128490899089908890889088906004016123e4565b602060405180830381600087803b15801561129e57600080fd5b505af19250505080156112ce575060408051601f3d908101601f191682019092526112cb91810190612429565b60015b61137b576112da612446565b806308c379a0141561131457506112ef612462565b806112fa5750611316565b8060405162461bcd60e51b81526004016103e79190611a69565b505b60405162461bcd60e51b815260206004820152603460248201527f455243313135353a207472616e7366657220746f206e6f6e2d455243313135356044820152732932b1b2b4bb32b91034b6b83632b6b2b73a32b960611b60648201526084016103e7565b6001600160e01b0319811663f23a6e6160e01b146108fe5760405162461bcd60e51b81526004016103e7906124eb565b81518351146113cc5760405162461bcd60e51b81526004016103e790612333565b6001600160a01b0384166113f25760405162461bcd60e51b81526004016103e790612533565b3361140181878787878761122a565b60005b84518110156114ea57600085828151811061142157611421612135565b60200260200101519050600085838151811061143f5761143f612135565b60209081029190910181015160008481526065835260408082206001600160a01b038e1683529093529190912054909150818110156114905760405162461bcd60e51b81526004016103e790612578565b60008381526065602090815260408083206001600160a01b038e8116855292528083208585039055908b168252812080548492906114cf90849061223f565b92505081905550505050806114e390612161565b9050611404565b50846001600160a01b0316866001600160a01b0316826001600160a01b03167f4a39dc06d4c0dbc64b70af90fd698a233a518aa5d07e595d983b8c0526c8f7fb878760405161153a9291906123bf565b60405180910390a4611238818787878787611835565b600054610100900460ff166115775760405162461bcd60e51b81526004016103e7906122a5565b61092c33610eb7565b6001600160a01b0384166115a65760405162461bcd60e51b81526004016103e790612533565b3360006115b2856111df565b905060006115bf856111df565b90506115cf83898985858961122a565b60008681526065602090815260408083206001600160a01b038c168452909152902054858110156116125760405162461bcd60e51b81526004016103e790612578565b60008781526065602090815260408083206001600160a01b038d8116855292528083208985039055908a1682528120805488929061165190849061223f565b909155505060408051888152602081018890526001600160a01b03808b16928c821692918816917fc3d58168c5ae7397731d063d5bbf3d657854427343f4c083240f7aacaa2d0f62910160405180910390a46116b1848a8a8a8a8a611240565b505050505050505050565b6001600160a01b0385166117435760005b8351811015611741578281815181106116e8576116e8612135565b60200260200101516097600086848151811061170657611706612135565b60200260200101518152602001908152602001600020600082825461172b919061223f565b9091555061173a905081612161565b90506116cd565b505b6001600160a01b0384166112385760005b83518110156108fe57600084828151811061177157611771612135565b60200260200101519050600084838151811061178f5761178f612135565b60200260200101519050600060976000848152602001908152602001600020549050818110156118125760405162461bcd60e51b815260206004820152602860248201527f455243313135353a206275726e20616d6f756e74206578636565647320746f74604482015267616c537570706c7960c01b60648201526084016103e7565b6000928352609760205260409092209103905561182e81612161565b9050611754565b6001600160a01b0384163b156112385760405163bc197c8160e01b81526001600160a01b0385169063bc197c819061187990899089908890889088906004016125c2565b602060405180830381600087803b15801561189357600080fd5b505af19250505080156118c3575060408051601f3d908101601f191682019092526118c091810190612429565b60015b6118cf576112da612446565b6001600160e01b0319811663bc197c8160e01b146108fe5760405162461bcd60e51b81526004016103e7906124eb565b82805461190b906120ac565b90600052602060002090601f01602090048101928261192d5760008555611973565b82601f1061194657805160ff1916838001178555611973565b82800160010185558215611973579182015b82811115611973578251825591602001919060010190611958565b5061197f929150611983565b5090565b5b8082111561197f5760008155600101611984565b80356001600160a01b03811681146119af57600080fd5b919050565b600080604083850312156119c757600080fd5b6119d083611998565b946020939093013593505050565b6001600160e01b0319811681146109d257600080fd5b600060208284031215611a0657600080fd5b8135610ac1816119de565b60005b83811015611a2c578181015183820152602001611a14565b83811115610eb15750506000910152565b60008151808452611a55816020860160208601611a11565b601f01601f19169290920160200192915050565b602081526000610ac16020830184611a3d565b600060208284031215611a8e57600080fd5b5035919050565b600080600060608486031215611aaa57600080fd5b611ab384611998565b95602085013595506040909401359392505050565b634e487b7160e01b600052604160045260246000fd5b601f8201601f191681016001600160401b0381118282101715611b0357611b03611ac8565b6040525050565b600082601f830112611b1b57600080fd5b81356001600160401b03811115611b3457611b34611ac8565b604051611b4b601f8301601f191660200182611ade565b818152846020838601011115611b6057600080fd5b816020850160208301376000918101602001919091529392505050565b60008060408385031215611b9057600080fd5b8235915060208301356001600160401b03811115611bad57600080fd5b611bb985828601611b0a565b9150509250929050565b60006001600160401b03821115611bdc57611bdc611ac8565b5060051b60200190565b600082601f830112611bf757600080fd5b81356020611c0482611bc3565b604051611c118282611ade565b83815260059390931b8501820192828101915086841115611c3157600080fd5b8286015b84811015611c4c5780358352918301918301611c35565b509695505050505050565b600080600080600060a08688031215611c6f57600080fd5b611c7886611998565b9450611c8660208701611998565b935060408601356001600160401b0380821115611ca257600080fd5b611cae89838a01611be6565b94506060880135915080821115611cc457600080fd5b611cd089838a01611be6565b93506080880135915080821115611ce657600080fd5b50611cf388828901611b0a565b9150509295509295909350565b600060208284031215611d1257600080fd5b610ac182611998565b60008060408385031215611d2e57600080fd5b82356001600160401b0380821115611d4557600080fd5b611d5186838701611b0a565b93506020850135915080821115611d6757600080fd5b50611bb985828601611b0a565b60008060408385031215611d8757600080fd5b82356001600160401b0380821115611d9e57600080fd5b818501915085601f830112611db257600080fd5b81356020611dbf82611bc3565b604051611dcc8282611ade565b83815260059390931b8501820192828101915089841115611dec57600080fd5b948201945b83861015611e1157611e0286611998565b82529482019490820190611df1565b96505086013592505080821115611e2757600080fd5b50611bb985828601611be6565b600081518084526020808501945080840160005b83811015611e6457815187529582019590820190600101611e48565b509495945050505050565b602081526000610ac16020830184611e34565b60008083601f840112611e9457600080fd5b5081356001600160401b03811115611eab57600080fd5b6020830191508360208260051b8501011115611ec657600080fd5b9250929050565b60008060008060008060608789031215611ee657600080fd5b86356001600160401b0380821115611efd57600080fd5b611f098a838b01611e82565b90985096506020890135915080821115611f2257600080fd5b611f2e8a838b01611e82565b90965094506040890135915080821115611f4757600080fd5b50611f5489828a01611e82565b979a9699509497509295939492505050565b600080600060608486031215611f7b57600080fd5b611f8484611998565b925060208401356001600160401b0380821115611fa057600080fd5b611fac87838801611be6565b93506040860135915080821115611fc257600080fd5b50611fcf86828701611be6565b9150509250925092565b60008060408385031215611fec57600080fd5b611ff583611998565b91506020830135801515811461200a57600080fd5b809150509250929050565b6000806040838503121561202857600080fd5b61203183611998565b915061203f60208401611998565b90509250929050565b600080600080600060a0868803121561206057600080fd5b61206986611998565b945061207760208701611998565b9350604086013592506060860135915060808601356001600160401b038111156120a057600080fd5b611cf388828901611b0a565b600181811c908216806120c057607f821691505b602082108114156120e157634e487b7160e01b600052602260045260246000fd5b50919050565b6020808252602e908201527f496e697469616c697a61626c653a20636f6e747261637420697320616c72656160408201526d191e481a5b9a5d1a585b1a5e995960921b606082015260800190565b634e487b7160e01b600052603260045260246000fd5b634e487b7160e01b600052601160045260246000fd5b60006000198214156121755761217561214b565b5060010190565b6000815161218e818560208601611a11565b9290920192915050565b600080845481600182811c9150808316806121b457607f831692505b60208084108214156121d457634e487b7160e01b86526022600452602486fd5b8180156121e857600181146121f957612226565b60ff19861689528489019650612226565b60008b81526020902060005b8681101561221e5781548b820152908501908301612205565b505084890196505b505050505050612236818561217c565b95945050505050565b600082198211156122525761225261214b565b500190565b6020808252602e908201527f455243313135353a2063616c6c6572206973206e6f7420746f6b656e206f776e60408201526d195c881bdc88185c1c1c9bdd995960921b606082015260800190565b6020808252602b908201527f496e697469616c697a61626c653a20636f6e7472616374206973206e6f74206960408201526a6e697469616c697a696e6760a81b606082015260800190565b60208082526023908201527f455243313135353a206275726e2066726f6d20746865207a65726f206164647260408201526265737360e81b606082015260800190565b60208082526028908201527f455243313135353a2069647320616e6420616d6f756e7473206c656e677468206040820152670dad2e6dac2e8c6d60c31b606082015260800190565b60208082526024908201527f455243313135353a206275726e20616d6f756e7420657863656564732062616c604082015263616e636560e01b606082015260800190565b6040815260006123d26040830185611e34565b82810360208401526122368185611e34565b6001600160a01b03868116825285166020820152604081018490526060810183905260a06080820181905260009061241e90830184611a3d565b979650505050505050565b60006020828403121561243b57600080fd5b8151610ac1816119de565b600060033d111561245f5760046000803e5060005160e01c5b90565b600060443d10156124705790565b6040516003193d81016004833e81513d6001600160401b03816024840111818411171561249f57505050505090565b82850191508151818111156124b75750505050505090565b843d87010160208285010111156124d15750505050505090565b6124e060208286010187611ade565b509095945050505050565b60208082526028908201527f455243313135353a204552433131353552656365697665722072656a656374656040820152676420746f6b656e7360c01b606082015260800190565b60208082526025908201527f455243313135353a207472616e7366657220746f20746865207a65726f206164604082015264647265737360d81b606082015260800190565b6020808252602a908201527f455243313135353a20696e73756666696369656e742062616c616e636520666f60408201526939103a3930b739b332b960b11b606082015260800190565b6001600160a01b0386811682528516602082015260a0604082018190526000906125ee90830186611e34565b82810360608401526126008186611e34565b905082810360808401526126148185611a3d565b9897505050505050505056fea264697066735822122051c3526fd10430e1f34a141dbaa424219caf16ff083cfad25c8e06f26c2cb15764736f6c63430008090033",
    "linkReferences": {}
  },
  "methodIdentifiers": {
    "balanceOf(address,uint256)": "00fdd58e",
    "balanceOfBatch(address[],uint256[])": "4e1273f4",
    "burn(address,uint256,uint256)": "f5298aca",
    "burnBatch(address,uint256[],uint256[])": "6b20c454",
    "exists(uint256)": "4f558e79",
    "gratieContract()": "64ca1801",
    "initialize(string,string)": "4cd88b76",
    "isApprovedForAll(address,address)": "e985e9c5",
    "mint(address,uint256,uint256)": "156e29f6",
    "mintBatch(address[],uint256[],uint256[])": "57128683",
    "name()": "06fdde03",
    "owner()": "8da5cb5b",
    "renounceOwnership()": "715018a6",
    "safeBatchTransferFrom(address,address,uint256[],uint256[],bytes)": "2eb2c2d6",
    "safeTransferFrom(address,address,uint256,uint256,bytes)": "f242432a",
    "setApprovalForAll(address,bool)": "a22cb465",
    "setGratieContract(address)": "3c12021d",
    "setTokenURI(uint256,string)": "162094c4",
    "supportsInterface(bytes4)": "01ffc9a7",
    "symbol()": "95d89b41",
    "totalSupply(uint256)": "bd85b039",
    "transferOwnership(address)": "f2fde38b",
    "uri(uint256)": "0e89341c"
  },
  "id": 75
}